:1000000007C1000033C1000031C100002FC1000052
:100010002DC100002BC1000029C1000027C1000034
:1000200025C1000023C1000021C100001FC1000044
:100030001DC100001BC1000019C1000017C1000054
:1000400015C10000F0C5000011C100000FC1000083
:100050000DC100000BC1000009C1000013C5000064
:1000600005C10000D9C40000AEC40000FFC00000FC
:10007000FDC00000FBC00000F9C00000F7C0000098
:10008000A5C50000F3C00000F1C00000EFC00000F3
:10009000EDC00000EBC00000E9C00000E7C00000B8
:1000A000E5C00000E3C0000064C50000DFC0000040
:1000B000DDC00000DBC00000D9C000002DC500007D
:1000C000D5C00000D3C00000D1C00000CFC00000E8
:1000D000CDC00000CBC00000C9C00000C7C00000F8
:1000E000C5C000001603190308030C0310035003D6
:1000F0001D03210327032B032F03350339033D037E
:100100005003430347034B0300000A0B02090C0D85
:100110000E080703040100000000000000000000BA
:1001200000000000000000000000000000000000CF
:10013000000000001211100000000000000000008C
:1001400000000000000000000000000000000000AF
:100150002200250028002B002E003100340002016F
:100160000000050108010B01000021002400270008
:100170002A002D00300033000101000004010701B6
:100180000A0105050505070508080808020202021C
:100190000A0A080804040404010101010101010123
:1001A0000303030303030303040707070C0C0C0CEE
:1001B0000C0C0C0C020202020606060606060606D7
:1001C0000B0B0B0B0B0B0B0B010210202008081064
:1001D00020401020408002010201080402010102B7
:1001E0000408102040808040201008040201800490
:1001F00002018040201008040201080402010102EB
:1002000004081020408001020408102040804006AD
:1002100011241FBECFEFD1E2DEBFCDBF00E00CBF87
:1002200012E0A0E0B2E0E4E1F0E100E00BBF02C0C8
:1002300007900D92A231B107D9F723E0A2E1B2E015
:1002400001C01D92A335B207E1F711E0C8E0D1E08B
:1002500000E005C021970109802FFE01CDD6C730EF
:10026000D10780E00807B1F784D5D2C6C9CECF92B6
:10027000DF92EF92FF921F93CF93DF93FC01828175
:1002800091811081103308F047C0C8E8D0E0C91B45
:10029000D10997FDD395CC0FDD1FCC0FDD1F6E016B
:1002A0000D2E000CEE08FF0828E532E0281B31096E
:1002B00087FD3395220F331F220F331FC901330FE0
:1002C000AA0BBB0B9C01AD012C193D094E095F091E
:1002D000A2E3B0E04AD624EB30E040E050E029D67B
:1002E000C20ED31EE41EF51ECC16DD060CF46E0104
:1002F00082E0C81AD108CC0CDD1C2FB7F894812FEE
:1003000090E0FC01EE0FFF1F8E0F9F1FFC01E454D5
:10031000FD4FD282C1822FBFDF91CF911F91FF90FD
:10032000EF90DF90CF90089590E0FC01E853FE4FEE
:100330002491FC01EE57FE4F8491882399F090E0C0
:10034000880F991FFC01E859FE4FA591B491FC015B
:10035000E25BFE4F859194918FB7F894EC91E22B7C
:10036000EC938FBF0895CF92DF92EF92FF920F939D
:100370001F93CF93DF936C017A018B01C0E0D0E033
:10038000CE15DF0589F0D8016D918D01D601ED9173
:10039000FC910190F081E02DC6011995892B11F493
:1003A0007E0102C02196ECCFC701DF91CF911F9152
:1003B0000F91FF90EF90DF90CF900895089580E027
:1003C00090E00895FC01538D448D252F30E0842F5B
:1003D00090E0821B930B541710F0CF96089501976D
:1003E0000895FC01918D828D981761F0828DDF0157
:1003F000A80FB11D5D968C91928D9F5F9F73928F18
:1004000090E008958FEF9FEF0895FC01918D828D0C
:10041000981731F0828DE80FF11D858D90E00895D9
:100420008FEF9FEF0895FC01918D228D892F90E031
:10043000805C9F4F821B91098F73992708958FE1EC
:1004400092E0F1DF21E0892B09F420E0822F08956A
:10045000FC01848DDF01A80FB11DA35ABF4F2C9161
:10046000848D90E001968F739927848FA689B78930
:100470002C93A089B1898C9180648C93938D848D09
:10048000981306C00288F389E02D80818F7D8083D8
:100490000895EF92FF920F931F93CF93DF93EC0198
:1004A00081E0888F9B8D8C8D981305C0E889F98930
:1004B000808185FD23C0F62E0B8D10E00F5F1F4F4E
:1004C0000F731127E02E8C8DE8120BC00FB607FCBE
:1004D000FACFE889F989808185FFF5CFCE01B8DFB1
:1004E000F2CF8B8DFE01E80FF11DE35AFF4FF08232
:1004F0000B8FEA89FB898081806207C0EE89FF89C2
:100500006083E889F98980818064808381E090E05C
:10051000DF91CF911F910F91FF90EF900895CF93AE
:10052000DF93EC01888D8823C1F0EA89FB89808103
:1005300085FD05C0A889B9898C9186FD0EC00FB6CE
:1005400007FCF5CF808185FFF2CFA889B9898C910E
:1005500085FFEDCFCE017CDFE8CFDF91CF9108950D
:1005600080E090E0892B19F06ADF811125C080E0DE
:1005700090E0892B41F080E090E0892B21F00E94EF
:10058000000081111CC080E090E0892B41F080E0E8
:1005900090E0892B21F00E940000811113C080E0BF
:1005A00090E0892BA1F080E090E0892B81F00E94FF
:1005B000000081110AC008950E940000D8CF0E9457
:1005C0000000E1CF0E940000EACF0C9400000895E3
:1005D000362F90E0FC01E85FFE4F4491FC01E853A8
:1005E000FE4F2491FC01EE57FE4F9491992309F49C
:1005F0006AC0442309F454C050E0FA013197E23153
:10060000F10508F04DC08827EE58FF4F8F4FF4C416
:10061000809180008F7707C0809180008F7D03C01C
:1006200080918000877F809380003AC084B58F7767
:1006300002C084B58F7D84BD33C08091B0008F77B8
:1006400003C08091B0008F7D8093B00029C080915D
:1006500090008F7707C0809190008F7D03C08091BC
:100660009000877F809390001BC08091A0008F77BF
:1006700007C08091A0008F7D03C08091A000877F7C
:100680008093A0000DC0809120018F7707C08091DA
:1006900020018F7D03C080912001877F80932001FE
:1006A000E92FF0E0EE0FFF1FE25BFE4FA591B49142
:1006B0008FB7F894EC91311103C020952E2301C01F
:1006C0002E2B2C938FBF08953FB7F89480911B0277
:1006D00090911C02A0911D02B0911E0226B5A89B0C
:1006E00005C02F3F19F00196A11DB11D3FBFBA2FC4
:1006F000A92F982F8827820F911DA11DB11DBC0124
:10070000CD0142E0660F771F881F991F4A95D1F7E8
:1007100008950F931F93CF93DF931F92CDB7DEB74A
:100720008C01DC018C91803308F053C0862F6983E3
:10073000FBDDF8018081E82FF0E09F01220F331FDD
:10074000E20FF31FE454FD4F69816F739081907C39
:10075000692B6083D80111961C92119712961C92F6
:100760006CE03ED4BCE08B9FB001112440E050E02F
:100770009A01260F371FF901EE0FFF1F2E0F3F1FA3
:10078000F901E454FD4F908196FD16C04F5F5F4F15
:100790004C30510569F7813021F51092800082E0DC
:1007A000809381001092850010928400B19A80910C
:1007B0006F00826080936F00D801EC91F0E0CF0170
:1007C000880F991FE80FF91FE454FD4F8081806462
:1007D0008083F80180810F90DF91CF911F910F915D
:1007E0000895823061F410929000809391001092ED
:1007F00095001092940088BB80937100DDCF833008
:1008000069F41092A00082E08093A1001092A500EC
:100810001092A40089BB80937200CECF8111CCCFFF
:100820001092200182E08093210110922501109204
:1008300024018ABB80937300BFCFCF92DF92EF92E7
:10084000FF920F931F93CF93DF936C018B017A017B
:10085000EC01CE5EDD4F888187FF04C0FB01118271
:10086000108224C08CE08C9D90018D9D300D112450
:100870008881A901480F511D87FD5A9580914C032D
:1008800090E04817590794F48881A901480F511D39
:1008900087FD5A95CA01FA01EE0FFF1F8E0F9F1FA9
:1008A000FC01E454FD4F808186FD19C088818F5F73
:1008B00088838CE08C9D90018D9D300D1124888162
:1008C000A901480F511D87FD5A9580914C0390E076
:1008D00048175907B4F488818C303CF112C08881E4
:1008E000280F311D87FD3A95F901EE0FFF1F2E0FDE
:1008F0003F1FF901E454FD4F808160E08F7368DE93
:10090000D5CFF80180819181049680349C4918F4F8
:1009100080E49CE904C0F801808191810496F7018C
:10092000918380838FEF888344C0F8014081518197
:100930008881B901680F711D87FD7A95CB01FB0194
:10094000EE0FFF1F8E0F9F1FFC01E454FD4F8181AE
:100950009281840F951FF701918380838881A9017B
:10096000480F511D87FD5A95CA01FA01EE0FFF1F6E
:100970008E0F9F1FFC01E454FD4F808186FF19C03C
:100980008881280F311D87FD3A95F901EE0FFF1F71
:100990002E0F3F1FF901E454FD4F808161E08F73FA
:1009A000DF91CF911F910F91FF90EF90DF90CF904B
:1009B0000FCEDF91CF911F910F91FF90EF90DF90BD
:1009C000CF90089521D31F920F920FB60F9211244A
:1009D0000BB60F922F933F934F935F936F937F9339
:1009E0008F939F93AF93BF93EF93FF938FE192E029
:1009F0002FDDFF91EF91BF91AF919F918F917F91EB
:100A00006F915F914F913F912F910F900BBE0F907F
:100A10000FBE0F901F9018951F920F920FB60F9256
:100A200011240BB60F922F938F939F93EF93FF9305
:100A3000E0912F02F09130028081E0913502F09137
:100A4000360282FD12C09081809138028F5F8F73D1
:100A500020913902821751F0E0913802F0E0E15E16
:100A6000FD4F958F8093380201C08081FF91EF91F7
:100A70009F918F912F910F900BBE0F900FBE0F90F3
:100A80001F9018951F920F920FB60F9211242F935B
:100A90003F938F939F93AF93BF9380911702909151
:100AA0001802A0911902B0911A023091160223E0A7
:100AB000230F2D3720F40196A11DB11D05C026E896
:100AC000230F0296A11DB11D2093160280931702D9
:100AD00090931802A0931902B0931A0280911B02FE
:100AE00090911C02A0911D02B0911E020196A11DC1
:100AF000B11D80931B0290931C02A0931D02B09322
:100B00001E02BF91AF919F918F913F912F910F90B6
:100B10000FBE0F901F9018951F920F920FB60F9255
:100B200011240BB60F922F933F934F935F936F93C4
:100B30007F938F939F93AF93BF93EF93FF9348E27D
:100B400051E064E271E080E090E077DEFF91EF91A8
:100B5000BF91AF919F918F917F916F915F914F91D5
:100B60003F912F910F900BBE0F900FBE0F901F90D3
:100B700018951F920F920FB60F9211240BB60F9279
:100B80002F933F934F935F936F937F938F939F9395
:100B9000AF93BF93EF93FF9348EA50E064EA70E0AD
:100BA00083E090E04ADEFF91EF91BF91AF919F917A
:100BB0008F917F916F915F914F913F912F910F9006
:100BC0000BBE0F900FBE0F901F9018951F920F92A3
:100BD0000FB60F9211240BB60F922F933F934F93A2
:100BE0005F936F937F938F939F93AF93BF93EF9395
:100BF000FF9348E950E064E970E082E090E01DDE98
:100C0000FF91EF91BF91AF919F918F917F916F91E4
:100C10005F914F913F912F910F900BBE0F900FBEA0
:100C20000F901F9018951F920F920FB60F921124DC
:100C30000BB60F922F933F934F935F936F937F93D6
:100C40008F939F93AF93BF93EF93FF9348E850E048
:100C500064E870E081E090E0F0DDFF91EF91BF91FA
:100C6000AF919F918F917F916F915F914F913F9144
:100C70002F910F900BBE0F900FBE0F901F901895E5
:100C8000109222021092210288EE93E0A0E0B0E0E0
:100C90008093230290932402A0932502B09326020E
:100CA00084E092E09093200280931F0285EC90E014
:100CB00090932C0280932B0284EC90E090932E0270
:100CC00080932D0280EC90E09093300280932F026D
:100CD00081EC90E0909332028093310282EC90E0BC
:100CE000909334028093330286EC90E09093360226
:100CF00080933502109238021092390210923A0213
:100D000010923B0280914C038033A0F491E0980F45
:100D100090934C038093500390E0FC01EE0FFF1F73
:100D20008E0F9F1FFC01E454FD4F88EB9BE09283E4
:100D3000818303C08FEF8093500380914C038033F5
:100D4000A0F491E0980F90934C0380934D0390E0B2
:100D5000FC01EE0FFF1F8E0F9F1FFC01E454FD4F9F
:100D600088EB9BE09283818308958FEF80934D03FE
:100D70000895789484B5826084BD84B5816084BD13
:100D800085B5826085BD85B5816085BD80916E0029
:100D9000816080936E00109281008091810082605A
:100DA0008093810080918100816080938100809197
:100DB00080008160809380008091B1008460809386
:100DC000B1008091B00081608093B000809191006B
:100DD0008260809391008091910081608093910066
:100DE000809190008160809390008091A10082604A
:100DF0008093A1008091A10081608093A1008091E7
:100E0000A00081608093A000809121018260809386
:100E10002101809121018160809321018091200135
:100E200081608093200180917A00846080937A00B1
:100E300080917A00826080937A0080917A0081604C
:100E400080937A0080917A00806880937A00109273
:100E5000C100E0912F02F091300282E08083E091A6
:100E60002B02F0912C021082E0912D02F0912E02C3
:100E70008FEC808310923702E0913302F0913402BC
:100E800086E08083E0913102F091320280818061BE
:100E90008083E0913102F09132028081886080830A
:100EA000E0913102F0913202808180688083E0918C
:100EB0003102F091320280818F7D808384E034DAC8
:100EC00061E084E085DB63E070E080E593E021DCB5
:100ED00080E593E0CCD962E070E08DE493E019DC2A
:100EE0008DE493E0C4D9F0DB4B015C0184E6C82EAD
:100EF000D12CE12CF12CE8DBDC01CB01881999091C
:100F0000AA09BB09883E9340A105B10558F021E02C
:100F1000C21AD108E108F10888EE880E83E0981E15
:100F2000A11CB11CC114D104E104F10421F718DBA8
:100F3000DACF052E97FB16F400940FD057FD05D09D
:100F40001ED007FC02D046F408C05095409530955D
:100F500021953F4F4F4F5F4F089590958095709525
:100F600061957F4F8F4F9F4F08952BD0A59F900D78
:100F7000B49F900DA49F800D911D11240895A1E2AE
:100F80001A2EAA1BBB1BFD010DC0AA1FBB1FEE1F03
:100F9000FF1FA217B307E407F50720F0A21BB30B4E
:100FA000E40BF50B661F771F881F991F1A9469F7CA
:100FB00060957095809590959B01AC01BD01CF0126
:100FC0000895A29FB001B39FC001A39F700D811D22
:100FD0001124911DB29F700D811D1124911D089542
:100FE000991B79E004C0991F961708F0961B881F7B
:100FF0007A95C9F780950895EE0FFF1F881F8BBF64
:101000000790F691E02D199481E090E0F89400C0EB
:04101000F894FFCF82
:10101400000000004902B301E2018F021302F10152
:021024000502C3
:00000001FF
