:100000000C9468010C94D80B0C94AD0B0C94820BDF
:100010000C94570B0C942C0B0C94010B0C94D60ADB
:100020000C94AB0A0C9499010C9499010C949901CD
:100030000C9499010C9499010C9499010C949901D8
:100040000C9499010C9499010C9499010C949901C8
:100050000C9499010C9499010C9499010C94610AE7
:100060000C9499010C942D0C0C94030C0C94990194
:100070000C9499010C9499010C9499010C94990198
:100080000C9499010C9499010C9499010C94990188
:100090000C9499010C9499010C9499010C94990178
:1000A0000C9499010C9499010C9499010C94990168
:1000B0000C9499010C9499010C9499010C94990158
:1000C0000C9499010C9499010C9499010C94990148
:1000D0000C9499010C9499010C9499010C94990138
:1000E0000C949901BE05BE05BE05AE05C105B1055E
:1000F000B105B105B405B1050B0D0E0DFD0C010DDB
:10010000050D450D120D160D1C0D200D240D2A0D8B
:100110002E0D320D450D380D3C0D400D0C94AE05E5
:100120000C945F040C942E0D0C9481070C94450DD7
:100130000C941B090C94160D0C94BD090C943C0DE9
:100140000C942A0D0C94320D0C9425090C9464091E
:100150000C9437050C94240D0C94BE050C94860960
:100160000C94AE040C9430050C94120D0C94B8024F
:100170000C9478090C941C0D0C945D050C94DA0316
:100180000C94050D0C94010D0C94B4050C942609E7
:100190000C940E0D0C94B1050C94C1050C940B0D30
:1001A0000C94FD0C0C94200D0C941A080C94BE0EAB
:1001B0000C9411090C94040A0C94380D0C94D5027B
:1001C0000C94400D0C9455090000220025002800D5
:1001D0002B002E003100340002010000050108014F
:1001E0000B0100002100240027002A002D00300010
:1001F000330001010000040107010A01050505059E
:10020000070508080808020202020A0A080804048E
:1002100004040101010101010101030303030303BC
:100220000303040707070C0C0C0C0C0C0C0C02024B
:10023000020206060606060606060B0B0B0B0B0B48
:100240000B0B0102102020080810204010204080D5
:10025000020102010804020101020408102040808A
:100260008040201008040201800402018040201018
:100270000804020108040201010204081020408061
:10028000010204081020408000000A0B02090C0D36
:100290000E08070304010000000000000000000039
:1002A000000000000000000000000000000000004E
:1002B000000000001211100000000000000000000B
:1002C0000000000000000000000000000000BE0E62
:1002D00011241FBECFEFD1E2DEBFCDBF00E00CBFC7
:1002E00013E0A0E0B2E0EAE7FEE100E00BBF02C0ED
:1002F00007900D92AC38B107D9F724E0ACE8B3E031
:1003000001C01D92A43DB207E1F711E0C8E6D1E0BB
:1003100000E006C021970109802FFE010E94EB0E2C
:10032000C736D10780E00807A9F70E94630C0C9438
:100330003B0F0C940000FC01A281B3818C918823B7
:1003400009F463C0CD0108969383828318968C913B
:100350001897811118C086819781A081B181B383DC
:10036000A2831582148212962C911297820F911DEE
:100370009187808713962C91820F911D27FD9A9566
:100380009387828742C014965C911497852F90E0E2
:1003900011962C911197322F3073303359F41996EE
:1003A0004C9119974073403329F41A964C911A973F
:1003B0004F3F69F1207C49F4303259F415968C9105
:1003C0001597859FC00111240CC0203811F482E0DC
:1003D00090E0311106C0248135812F5F3F4F358376
:1003E00024831A962C911A97820F911D20853185AE
:1003F000820F931F918780871B962C91820F911DEE
:1004000027FD9A959387828702C080E0089581E056
:100410000895CF93DF93CDB7DEB72C970FB6F8943E
:10042000DEBF0FBECDBFFC0191812381892F807378
:1004300009F45DC0DB01A20FB11D27FDBA95803222
:1004400011F0803319F481E09C911CC0803131F4AB
:10045000222321F09C9181E089274AC0892F807C4A
:1004600021F08481262FFB013CC09F708BEF890F08
:10047000823020F481E0FB01908104C0993029F49E
:1004800081E094819923A1F132C0973051F7068021
:10049000F781E02DFA83E983FC83EB831E821D82C2
:1004A00078876F838281680F711D7A87698783815E
:1004B000680F711D87FD7A957C876B878081882303
:1004C000A1F069857A858B819C810E94090288232D
:1004D00079F0CE0101960E949B01F1CF919191118B
:1004E00006C09E2F921B9817C8F381E001C080E0E0
:1004F0002C960FB6F894DEBF0FBECDBFDF91CF9123
:1005000008950F931F93CF93DF93EC018A01E88145
:10051000F981309709F12E813F81240F351F8C819D
:100520009D818217930750F488859985009711F46F
:100530008EEC92E09987888780E015C0CE011995EE
:1005400081110AC0288539852115310511F42AED5C
:1005500032E03987288707C08E819F81080F191FD5
:100560001F830E8381E0DF91CF911F910F9108953A
:10057000CF93DF9300D01F92CDB7DEB7FA01508141
:1005800041813281238159834A833B832C8344E018
:1005900050E0BE016F5F7F4F0E9481020F900F906D
:1005A0000F900F90DF91CF9108959F92AF92BF92DD
:1005B000CF92DF92EF92FF920F931F93CF93DF932F
:1005C000CDB7DEB728970FB6F894DEBF0FBECDBF0C
:1005D0005C01DA01EC9111969C9011971296CC90E7
:1005E00012971396DC9013971496EC901497159627
:1005F000FC90159716961C9116971796FC91E98317
:100600002E2F392DA601B701812F9F2F08E00E94C0
:100610000E0F2A832E2F392DA601B701812F9F2F70
:1006200000E10E940E0F2B832E2F392DA601B7015A
:10063000812F9F2F08E10E940E0F2C832E2F392D22
:10064000A601B701812F9F2F00E20E940E0F2D837C
:100650002E2F392DA601B701812F9F2F08E20E946E
:100660000E0F2E832E2F392DA601B701812F9F2F1C
:1006700000E30E940E0F2F832E2F392DA601B70104
:10068000812F9F2F08E30E940E0F288748E050E03B
:10069000BE016F5F7F4FC5010E94810228960FB691
:1006A000F894DEBF0FBECDBFDF91CF911F910F91A8
:1006B000FF90EF90DF90CF90BF90AF909F90089504
:1006C0003F924F925F926F927F928F929F92AF92E2
:1006D000BF92CF92DF92EF92FF920F931F93CF932F
:1006E000DF93CDB7DEB72A970FB6F894DEBF0FBE03
:1006F000CDBF6C01722E332EF42FE52F2B01980104
:10070000472D532D6F2F7E2FC201AFE70E942A0F76
:1007100009F020F4098341E050E02EC0CE0101969B
:100720005C01E12CF12C902F9068692ED5019D93EE
:100730005D019801472D532D6F2F7E2FC20107E0D9
:100740000E940E0F8901742E352EF62FE72F2C01F3
:100750004701BFEF8B1A9B0AA0E00E942A0F11F0FD
:100760007401E1CFE1E0F0E0EC0FFD1FEE0DFF1DA5
:10077000862D8F778083A401BE016F5F7F4FC601F6
:100780000E9481022A960FB6F894DEBF0FBECDBF3D
:10079000DF91CF911F910F91FF90EF90DF90CF905D
:1007A000BF90AF909F908F907F906F905F904F9091
:1007B0003F900895AF92BF92CF92DF92EF92FF9257
:1007C0000F931F93CF93DF93FC01EA01DB01149693
:1007D0008C91813059F4E880BE2DBB0FBB0BFB2EF2
:1007E000AB2EBB2ECB2EDB2E0B2F34C0823059F418
:1007F000B981E880FB2EFF0CFF08AF2CBF2CCF2C5B
:10080000DF2C0F2D27C0843081F4088119812A81C3
:100810003B81E02EB12FF22EA32E330F000B102FB1
:100820009801B02EC02ED02E15C0883049F4E88033
:10083000B981FA80AB80BC80CD80DE800F810AC098
:1008400080859185009711F483EE92E091878087EF
:1008500080E02AC02E2D3B2F4F2D5A2D6B2D7C2D45
:100860008D2D902FA0E00E942A0F64F401E00E94D9
:10087000F30E209530954095509560957095809534
:1008800090950BC02E2D3B2F4F2D5A2D6B2D7C2D6F
:100890008D2D902F01E00E94F30E89019A01AB018A
:1008A000BC01CF010E946003DF91CF911F910F9196
:1008B000FF90EF90DF90CF90BF90AF9008958F9210
:1008C0009F92AF92BF92CF92DF92EF92FF920F93DF
:1008D0001F93FA01DB0114962C91213019F48080CA
:1008E000912C04C0223029F480809180A12CB12C5D
:1008F00006C0243041F480809180A280B380C12C56
:10090000D12C76011AC0283049F480809180A280D1
:10091000B380C480D580E680F7800FC0FC012085BD
:1009200031852115310511F423EE32E0DC011996F1
:100930003C932E93189780E006C084019501A60190
:10094000B7010E9460031F910F91FF90EF90DF901D
:10095000CF90BF90AF909F908F9008950F931F936B
:10096000CF93FA01DB0114962C91213059F40081C8
:10097000102F110F110B212F312FC12FB12FA12FAC
:10098000712F38C0223059F411810081212F220F9C
:10099000220B322FC22FB22FA22F722F2BC0243046
:1009A00079F440815181628173818A019B01770FC3
:1009B000440B542FBA01C42FB42FA42F742F1AC084
:1009C000283049F40081118122813381C481B581AD
:1009D000A68177810FC0FC01208531852115310565
:1009E00011F423EE32E0DC0119963C932E93189714
:1009F00080E005C04C2F5B2F6A2F0E946003CF91CF
:100A00001F910F910895CF92DF92EF92FF920F9373
:100A10001F93CF93DF93EC016B017A018A0120E0F1
:100A200030E040E050E060E070E00E946003882326
:100A300069F0A701B601CE01DF91CF911F910F910F
:100A4000FF90EF90DF90CF900C94810280E0DF91D7
:100A5000CF911F910F91FF90EF90DF90CF9008956D
:100A6000FB01BA012481422F50E00C940305CF937F
:100A7000DF93EC01FB01BA0124819181907C9038D5
:100A800019F0422F50E002C04FEF5FEF6115710582
:100A900069F0DB01E0E0F0E0E417F50749F08D9143
:100AA000882311F03196F8CFAF0102C040E050E04A
:100AB000CE01DF91CF910C940305CF93DF93FA0120
:100AC000309729F440E050E060E070E01DC0DB01A9
:100AD00011962C91207C4081211112C0A42FB0E0EE
:100AE0001196EB012C8130E02A173B0748F4FC01FA
:100AF000208531852115310559F425EF32E008C0F4
:100B000050E0BF016F5F7F4FDF91CF910C940305E1
:100B1000DC0119963C932E93189780E0DF91CF91DA
:100B200008958F929F92AF92BF92CF92DF92EF92F1
:100B3000FF920F931F93CF93DF93EC01DB0111968C
:100B40004C9111974F7050E04A30510568F4FA010A
:100B50008827EE58FF4F8F4F0C94EB0E25E030E0C6
:100B600012C022E030E00FC088859985009711F40B
:100B700089E093E09987888780E01AC020E030E020
:100B800002C021E030E049012C9130E040E050E02B
:100B900060E070E080E090E003E00E94F30E8901E5
:100BA0009A0108291929AB01BC01CE010E946003FA
:100BB000DF91CF911F910F91FF90EF90DF90CF9039
:100BC000BF90AF909F908F9008952F923F924F9239
:100BD0005F926F927F928F929F92AF92BF92CF92CD
:100BE000DF92EF92FF920F931F93CF93DF93CDB7D6
:100BF000DEB72B970FB6F894DEBF0FBECDBF7C01DA
:100C00006B015A01DB0111968C91982F907C9034E6
:100C100009F436C1903811F091114BC1E82FEF70F3
:100C2000F0E0EE0FFF1FE05FFD4F40805180F601C6
:100C30009381992331F0F501E90FF11D97FDFA95A4
:100C40000EC08073803139F4B501C6010E940902DB
:100C500091E0892701C081E08B87FE013B96D60198
:100C600011968C91282F207C203849F4D501AD9025
:100C7000BC9091E0A114B10409F490E09B87982FF7
:100C800090739031B9F018F4992339F0ECC0903298
:100C9000B1F0903309F4D6C0E6C0A114B10409F054
:100CA000D6C0F70180859185009709F009C18CE1D4
:100CB00093E006C18081882309F409C1C8C08080FF
:100CC000912C8114910409F402C1203881F0D601DD
:100CD00015962C9130E02815390548F4F7018085E8
:100CE0009185009709F0ECC083E393E0E9C08F7031
:100CF000853008F07CC0F601208130E040E050E013
:100D000060E070E080E090E003E00E94F30E022FCC
:100D1000242F0260132F352FAB01BC01C7010E94A5
:100D20006003882309F4D1C0D60111968C918F708D
:100D3000833031F43401660C771C660C771C29C0B3
:100D4000843039F4340183E0660C771C8A95E1F72E
:100D500020C0FE0131961F018AE0DF011D928A95B5
:100D6000E9F78501612C712CA801B601C101F201DE
:100D70001995882309F4A9C0D60114968C91080FFF
:100D8000111DBFEF6B1A7B0A6814790468F36F803A
:100D90007884830120E030E040E050E060E070E0E3
:100DA000C7010E946003882309F48FC0F701808186
:100DB0009181892B39F4A30160E070E0C7010E94A2
:100DC000810286C000E010E0A501B601C701F20172
:100DD0001995882309F479C0D60114968C91A80E30
:100DE000B11C0F5F1F4F0815190570F370C000E0AC
:100DF00010E0B601C7010E949105882309F465C07F
:100E0000F6018181982F907C9038D1F48F7090E01A
:100E100005970297A8F4D5014D915C91B601C701E1
:100E2000F2011995882309F450C0D60114968C91CB
:100E3000A80EB11C0F5F1F4F08151905D0F247C04F
:100E4000A501ECCF9081D6018C91981340C0B601DA
:100E5000C7010E9491058823C1F1A501B601C70110
:100E6000F201199535C0D70118968D919C9119976B
:100E7000009711F489E093E0F7019187808725C0FE
:100E80004E5F5F4FD501ED91FC91309701F1C701A5
:100E9000199581111CC0F701208531852115310577
:100EA00011F42BE433E0D70119963C932E93189755
:100EB0000FC0F70180859185009711F489E093E0D8
:100EC000D70119969C938E93189780E001C081E01A
:100ED0002B960FB6F894DEBF0FBECDBFDF91CF913A
:100EE0001F910F91FF90EF90DF90CF90BF90AF9048
:100EF0009F908F907F906F905F904F903F902F903A
:100F00000895FC01A281B3819D01240F351F338315
:100F10002283FB01460F571FE417F50719F0819153
:100F20008D93FACF81E00895682F80E993E00C94C7
:100F3000BD0944E050E06AE573E080E993E00C9479
:100F40002609EF92FF920F931F93CF93DF93CDB7B4
:100F5000DEB72C970FB6F894DEBF0FBECDBFFB01F6
:100F60007A8369837C836B831E821D8258874F83BB
:100F70002281420F511D5A8749872381420F511DFB
:100F800027FD5A955C874B872081211102C081E0A3
:100F900044C07C016B817C81FB0181818F7049851C
:100FA0005A85883071F5FA0100811181011511050A
:100FB00069F1F801A081B1811296ED91FC9113972E
:100FC000309721F0B801C701199513C014966D919F
:100FD0007C911597FB018181807C803821F4A801E8
:100FE0004E5F5F4F03C0F80142815381C7010E94E9
:100FF000E505811102C080E010C0F801048115816F
:10100000D5CFC7010E94E5058823A9F3CE0101963B
:101010000E949B018111BECFBACF2C960FB6F894D7
:10102000DEBF0FBECDBFDF91CF911F910F91FF901B
:10103000EF9008956F927F928F929F92AF92BF929E
:10104000CF92DF92EF92FF920F931F93CF93DF9394
:10105000CDB7DEB72A970FB6F894DEBF0FBECDBF6F
:10106000FB01668077806114710451F4FC012085D6
:1010700031852115310511F42FE533E0FC0171C0F4
:101080005A017C01CE0101964C018AE0F4011192D3
:101090008A95E9F7B301C4010E94A107811104C038
:1010A00029853A85F70154C0CF80D884860120E095
:1010B00030E040E050E060E070E0C7010E94600373
:1010C000882309F451C0F7012081318121153105B0
:1010D00039F4A60160E070E0C7010E94810244C0BB
:1010E000F701868197818C0D9D1D4481558148179C
:1010F000590750F480859185009711F48EEC92E0A9
:10110000F701918780872FC03A832983F701828175
:1011100093819C838B83DE82CD8218861F821A8600
:101120001986A501B301C4010E94A1074F8158850A
:10113000F70126813781240F351F378326832B81C2
:101140003C813383228329853A854C155D0519F44A
:101150003187208709C02115310511F428E733E0D4
:10116000F7013187208780E02A960FB6F894DEBF1A
:101170000FBECDBFDF91CF911F910F91FF90EF90E8
:10118000DF90CF90BF90AF909F908F907F906F90A7
:101190000895CF93DF9390E0FC01EE5BFD4F249127
:1011A000FC01E450FE4F8491882361F190E0880FA8
:1011B000991FFC01EE51FE4FC591D491FC01E853FB
:1011C000FE4FA591B491611109C09FB7F894888131
:1011D000209582238883EC912E230BC0623061F42A
:1011E0009FB7F8943881822F809583238883EC9170
:1011F0002E2B2C939FBF06C08FB7F894E8812E2B1F
:1012000028838FBFDF91CF9108952FB7F894609115
:101210008C0370918D0380918E0390918F032FBF6B
:1012200008958091390490913A04019690933A047C
:1012300080933904089580913B0490913C04019679
:1012400090933C0480933B0408950895CF92DF92DD
:10125000EF92FF920F931F93CF93DF936C017A016C
:101260008B01C0E0D0E0CE15DF0589F0D8016D918B
:101270008D01D601ED91FC910190F081E02DC60128
:101280001995892B11F47E0102C02196ECCFC7017C
:10129000DF91CF911F910F91FF90EF90DF90CF9052
:1012A0000895089580E090E00895FC01538D448DE9
:1012B000252F30E0842F90E0821B930B541710F001
:1012C000CF96089501970895FC01918D828D98170E
:1012D00061F0828DDF01A80FB11D5D968C91928D1A
:1012E0009F5F9F73928F90E008958FEF9FEF089517
:1012F000FC01918D828D981731F0828DE80FF11DE0
:10130000858D90E008958FEF9FEF0895FC01918DFA
:10131000228D892F90E0805C9F4F821B91098F73F3
:101320009927089580E993E00E94860921E0892B9E
:1013300009F420E0822F0895FC01848DDF01A80FBD
:10134000B11DA35ABF4F2C91848D90E001968F73ED
:101350009927848FA689B7892C93A089B1898C910C
:1013600080648C93938D848D981306C00288F389D2
:10137000E02D80818F7D80830895EF92FF920F93FF
:101380001F93CF93DF93EC0181E0888F9B8D8C8D31
:10139000981305C0E889F989808185FD24C0F62E5F
:1013A0000B8D10E00F5F1F4F0F731127E02E8C8DF8
:1013B000E8120CC00FB607FCFACFE889F9898081E2
:1013C00085FFF5CFCE010E949C09F1CF8B8DFE01E8
:1013D000E80FF11DE35AFF4FF0820B8FEA89FB897A
:1013E0008081806207C0EE89FF896083E889F9897E
:1013F00080818064808381E090E0DF91CF911F91B4
:101400000F91FF90EF900895CF93DF93EC01888DBB
:101410008823C9F0EA89FB89808185FD05C0A889F8
:10142000B9898C9186FD0FC00FB607FCF5CF80817E
:1014300085FFF2CFA889B9898C9185FFEDCFCE01C8
:101440000E949C09E7CFDF91CF91089580E090E062
:10145000892B21F00E949209811125C080E090E043
:10146000892B41F080E090E0892B21F00E94000060
:1014700081111CC080E090E0892B41F080E090E079
:10148000892B21F00E940000811113C080E090E0C0
:10149000892BA1F080E090E0892B81F00E94000070
:1014A00081110AC008950E940000D8CF0E94000058
:1014B000E1CF0E940000EACF0C94000008950E9442
:1014C000360F1F920F920FB60F9211242F933F9356
:1014D0008F939F93AF93BF9380918C0390918D03D3
:1014E000A0918E03B0918F033091D30423E0230F9A
:1014F0002D3720F40196A11DB11D05C026E8230F4C
:101500000296A11DB11D2093D30480938C03909368
:101510008D03A0938E03B0938F038091CF0490919D
:10152000D004A091D104B091D2040196A11DB11DA7
:101530008093CF049093D004A093D104B093D204AD
:10154000BF91AF919F918F913F912F910F900FBEBF
:101550000F901F9018951F920F920FB60F921124A3
:101560000BB60F922F933F934F935F936F937F939D
:101570008F939F93AF93BF93EF93FF93E0910E02EE
:10158000F0910F021995FF91EF91BF91AF919F914B
:101590008F917F916F915F914F913F912F910F901C
:1015A0000BBE0F900FBE0F901F9018951F920F92B9
:1015B0000FB60F9211240BB60F922F933F934F93B8
:1015C0005F936F937F938F939F93AF93BF93EF93AB
:1015D000FF93E0910C02F0910D021995FF91EF91AC
:1015E000BF91AF919F918F917F916F915F914F913B
:1015F0003F912F910F900BBE0F900FBE0F901F9039
:1016000018951F920F920FB60F9211240BB60F92DE
:101610002F933F934F935F936F937F938F939F93FA
:10162000AF93BF93EF93FF93E0910202F091030217
:101630001995FF91EF91BF91AF919F918F917F91FC
:101640006F915F914F913F912F910F900BBE0F9033
:101650000FBE0F901F9018951F920F920FB60F920A
:1016600011240BB60F922F933F934F935F936F9379
:101670007F938F939F93AF93BF93EF93FF93E091EB
:101680000002F09101021995FF91EF91BF91AF9186
:101690009F918F917F916F915F914F913F912F918A
:1016A0000F900BBE0F900FBE0F901F9018951F92BA
:1016B0000F920FB60F9211240BB60F922F933F93F8
:1016C0004F935F936F937F938F939F93AF93BF934A
:1016D000EF93FF93E0910A02F0910B021995FF91AD
:1016E000EF91BF91AF919F918F917F916F915F919A
:1016F0004F913F912F910F900BBE0F900FBE0F9007
:101700001F9018951F920F920FB60F9211240BB6CF
:101710000F922F933F934F935F936F937F938F938A
:101720009F93AF93BF93EF93FF93E0910802F091E3
:1017300009021995FF91EF91BF91AF919F918F9100
:101740007F916F915F914F913F912F910F900BBEC1
:101750000F900FBE0F901F9018951F920F920FB60B
:101760000F9211240BB60F922F933F934F935F93D9
:101770006F937F938F939F93AF93BF93EF93FF9359
:10178000E0910602F09107021995FF91EF91BF9148
:10179000AF919F918F917F916F915F914F913F9109
:1017A0002F910F900BBE0F900FBE0F901F901895AA
:1017B0001F920F920FB60F9211240BB60F922F9318
:1017C0003F934F935F936F937F938F939F93AF93C9
:1017D000BF93EF93FF93E0910402F09105021995F6
:1017E000FF91EF91BF91AF919F918F917F916F91F9
:1017F0005F914F913F912F910F900BBE0F900FBEB5
:101800000F901F9018951F920F920FB60F921124F0
:101810000BB60F922F933F934F935F936F937F93EA
:101820008F939F93AF93BF93EF93FF9380E993E0E0
:101830000E949C09FF91EF91BF91AF919F918F9171
:101840007F916F915F914F913F912F910F900BBEC0
:101850000F900FBE0F901F9018951F920F920FB60A
:101860000F9211240BB60F922F938F939F93EF93A8
:10187000FF93E091A003F091A1038081E091A60382
:10188000F091A70382FD12C090818091A9038F5F20
:101890008F732091AA03821751F0E091A903F0E021
:1018A000E057FC4F958F8093A90301C08081FF9181
:1018B000EF919F918F912F910F900BBE0F900FBEC4
:1018C0000F901F901895CF93DF93CDB7DEB72A976F
:1018D0000FB6F894DEBF0FBECDBF789484B582609A
:1018E00084BD84B5816084BD85B5826085BD85B5C4
:1018F000816085BD80916E00816080936E00109242
:1019000081008091810082608093810080918100BC
:10191000816080938100809180008160809380004D
:101920008091B10084608093B1008091B0008160AB
:101930008093B000809191008260809391008091AB
:1019400091008160809391008091900081608093EC
:1019500090008091A10082608093A1008091A100FD
:1019600081608093A1008091A00081608093A0009D
:101970008091210182608093210180912101816009
:1019800080932101809120018160809320018091CA
:101990007A00846080937A0080917A0082608093DC
:1019A0007A0080917A00816080937A0080917A0039
:1019B000806880937A001092C10061E08BE00E9401
:1019C000C908E3E9F2E04491EDE4F2E02491E7E0B4
:1019D000F2E09491992309F467C0442309F455C0B7
:1019E00050E0FA013197E231F10508F04EC0882746
:1019F000E458FF4F8F4F0C94EB0E809180008F774F
:101A000007C0809180008F7D03C080918000877F18
:101A1000809380003AC084B58F7702C084B58F7DF3
:101A200084BD33C08091B0008F7703C08091B00037
:101A30008F7D8093B00029C0809190008F7707C080
:101A4000809190008F7D03C080919000877F80936C
:101A500090001BC08091A0008F7707C08091A000EC
:101A60008F7D03C08091A000877F8093A0000DC070
:101A7000809120018F7707C0809120018F7D03C066
:101A800080912001877F80932001E92FF0E0EE0F05
:101A9000FF1FE853FE4FA591B4918FB7F894EC91D6
:101AA00020952E232C938FBF10923A041092390464
:101AB00010923C0410923B0462E082E00E94C9084C
:101AC00062E083E00E94C90881E199E090930102FD
:101AD0008093000280916A00836080936A00EC9A90
:101AE0008BE199E0909303028093020280916A0057
:101AF0008C6080936A00ED9AE091A003F091A103BD
:101B000082E08083E0919C03F0919D031082E0913C
:101B10009E03F0919F038FEC80831092A803E091C5
:101B2000A403F091A50386E08083E091A203F091E5
:101B3000A303808180618083E091A203F091A303DD
:101B4000808188608083E091A203F091A30380816B
:101B500080688083E091A203F091A30380818F7D50
:101B600080830E9405096093CB047093CC0480931A
:101B7000CD049093CE040E9405096093C70470932E
:101B8000C8048093C9049093CA042CE0822E912C3F
:101B9000A12CB12C3DE0432E512C612C712C4DE336
:101BA000242E44E0342E02E510E0C090CB04D09007
:101BB000CC04E090CD04F090CE0480E1C80E87E222
:101BC000D81EE11CF11C0E940509C616D706E806BE
:101BD000F90608F059C080922D0490922E04A0922C
:101BE0002F04B0923004409231045092320460923B
:101BF0003304709234048EE090E0A0E0B0E0809373
:101C0000350490933604A0933704B0933804A1E8C8
:101C1000B7E0BA83A9833C822B821E830D8318868A
:101C20001F821A8619864DE254E066E372E0CE0107
:101C300001960E94A1070E94990764E080E993E061
:101C40000E94BD0982E190E00E94940780E090E04C
:101C50000E9494079DE3E92E94E0F92EF70161912B
:101C60007F0180E993E00E94BD09FFE4EF16F4E0F4
:101C7000FF06A1F70E9405096093CB047093CC0482
:101C80008093CD049093CE04C090C704D090C80434
:101C9000E090C904F090CA0488EEC80E83E0D81E14
:101CA000E11CF11C0E940509C616D706E806F906D4
:101CB00008F061C08091390490913A0410923A047E
:101CC00010923904A0E0B0E080938F0490939004C8
:101CD000A0939104B093920480913B0490913C04B2
:101CE00010923C0410923B04A0E0B0E08093930477
:101CF00090939404A0939504B0939604A1E8B7E060
:101D0000BA83A9833C822B821E830D8318861F828F
:101D10001A8619864FE854E066E572E0CE01019616
:101D20000E94A1070E94990763E080E993E00E9466
:101D3000BD0982E590E00E94940780E090E00E9457
:101D400094078DE3E82E84E0F82EF70161917F017E
:101D500080E993E00E94BD09FFE8EF16F4E0FF067A
:101D6000A1F70E9405096093C7047093C80480938B
:101D7000C9049093CA040E94260A17CFE0E9F3E051
:101D80001382128288EE93E0A0E0B0E08483958312
:101D9000A683B78388E292E09183808385EC90E00C
:101DA0009587848784EC90E09787868780EC90E025
:101DB000918B808B81EC90E0938B828B82EC90E016
:101DC000958B848B86EC90E0978B868B118E128E90
:101DD000138E148E0895EE0FFF1F881F8BBF079080
:101DE000F691E02D19940F93083090F0982F872FDB
:101DF000762F652F542F432F322F22270850F4CFF0
:101E0000220F331F441F551F661F771F881F991FFE
:101E10000A95B2F70F91089597FB10F816940008F1
:101E20000F93083098F00850232F342F452F562F4A
:101E3000672F782F892F902DF4CF0594979587954C
:101E40007795679557954795379527950A95AAF7FA
:101E50000F9108950024A7FD00942A17300540052E
:101E600050056005700580059005089581E090E0BB
:0A1E7000F8940C943B0FF894FFCF98
:101E7A0025092509250925092509250925092509E8
:101E8A00AE045F04DA03B802D5025D0537051A0805
:101E9A000000300500000000BD0926095509040AA2
:101EAA008609640978090111000004000000021182
:101EBA0000000400000003110000040000000000FC
:101ECA0000000000000001110000040000000211DF
:101EDA0000000400000003130000040000000413C3
:101EEA0000000400000005110000040000000611B3
:101EFA00000004000000071100000400000008119F
:101F0A0000000400000009110000040000000A118A
:101F1A000000040000000B110000040000000C1176
:101F2A000000040000000D110000040000000E1162
:101F3A0000000400000000000000000000007374AC
:101F4A007265616D2066756C6C00696F20657272CE
:101F5A006F7200696E76616C696420646174615F96
:101F6A0073697A650062797465732073697A65208A
:101F7A00657863656564656400696E76616C696439
:101F8A00206669656C642074797065006D69737385
:101F9A00696E672072657175697265642066696524
:101FAA006C64006172726179206D61782073697A5C
:101FBA00652065786365656465640063616C6C625D
:101FCA0061636B206572726F7200414E53490069FA
:101FDA006E76616C6964206669656C6420646573F9
:101FEA0063726970746F72007375626D73672073C0
:0C1FFA00697A65206368616E67656400A9
:00000001FF
