:100000000C9475010C9486070C945B070C943007D4
:100010000C9405070C94DA060C94AF060C94840635
:100020000C9459060C94A6010C94A6010C94A601FC
:100030000C94A6010C94A6010C94A6010C94A601A4
:100040000C94A6010C94A6010C94A6010C94A60194
:100050000C94A6010C94A6010C94A6010C940F0616
:100060000C94A6010C94A6010C94A6010C94A60174
:100070000C94A6010C94A6010C94A6010C94A60164
:100080000C94A6010C94A6010C94A6010C94A60154
:100090000C94DB070C94B1070C94A6010C94A601F8
:1000A0000C94A6010C94A6010C94A6010C94A60134
:1000B0000C94A6010C94A6010C94A6010C94A60124
:1000C0000C94A6010C94A6010C94A6010C94A60114
:1000D0000C94A6010C94A6010C94A6010C94A60104
:1000E0000C94A601EA01ED01DC01E001E401240227
:1000F000F101F501FB01FF01030209020D021102EA
:10010000240217021B021F02B80BB80BB80BA80B76
:10011000BB0BAB0BAB0BAB0BAE0BAB0B0C940902DD
:100120000C9438020C947C020C94BB0B0C942A0B9C
:100130000C9411020C941F020C94F1010C94D4093C
:100140000C94A80A0C94570B0C94F5010C94FF0125
:100150000C94B80B0C942B030C94DC010C9403024C
:100160000C94E4010C944C020C94A80B0C94EA013E
:100170000C94310B0C9437080C949F020C94AD0234
:100180000C94E4020C94AE0B0C94A8010C941B028A
:100190000C948B020C94E0010C94590A0C945408B2
:1001A0000C9424020C940D020C9417020C944D0232
:1001B0000C9442020C94ED010C9490110C94580C88
:1001C0000C94FB010C94AB0B0000200023002600D4
:1001D00029002C002F00320000010000030106015D
:1001E000090100002100240027002A002D00300012
:1001F000330001010000040107010A010000220090
:10020000250028002B002E003100340002010000E0
:10021000050108010B010505050507050808080883
:10022000020202020A0A080804040404010101018E
:100230000101010103030303030303030407070789
:100240000C0C0C0C0C0C0C0C02020202060606062E
:10025000060606060B0B0B0B0B0B0B0B01021020FB
:1002600020080810204010204080020102010804EC
:100270000201010204081020408080402010080480
:1002800002018004020180402010080402010804D9
:10029000020101020408102040800102040810201D
:1002A000408000000A0B02090C0D0E080703040130
:1002B000000000000000000000000000000000003E
:1002C000000000000000000000000000000012110B
:1002D000100000000000000000000000000000000E
:1002E0000000000000000000901111241FBECFEF9D
:1002F000D1E2DEBFCDBF00E00CBF13E0A0E0B2E072
:10030000EEEDF7E200E00BBF02C007900D92AC39B2
:10031000B107D9F725E0ACE9B3E001C01D92A336DF
:10032000B207E1F711E0C5E7D1E000E006C0219790
:100330000109802FFE010E943912C437D10780E0E5
:100340000807A9F70E944C0D0C94ED130C940000C3
:10035000FC01A281B3819D01240F351F33832283C9
:10036000FB01460F571FE417F50719F081918D9394
:10037000FACF81E00895362F90E0FC01EE55FD4F55
:100380004491FC01E45AFD4F2491FC01EA5EFD4FCB
:100390009491992309F46BC0442309F455C050E0AB
:1003A000FA013197E231F10508F04EC08827EE5886
:1003B000FF4F8F4F0C943912809180008F7707C0C8
:1003C000809180008F7D03C080918000877F809323
:1003D00080003AC084B58F7702C084B58F7D84BD1C
:1003E00033C08091B0008F7703C08091B0008F7DC3
:1003F0008093B00029C0809190008F7707C08091D2
:1004000090008F7D03C080919000877F8093900043
:100410001BC08091A0008F7707C08091A0008F7DC6
:1004200003C08091A000877F8093A0000DC08091C1
:1004300020018F7707C0809120018F7D03C08091BC
:100440002001877F80932001E92FF0E0EE0FFF1F4E
:10045000E450FE4FA591B4918FB7F894EC9131110F
:1004600003C020952E2301C02E2B2C938FBF0895FF
:1004700080919D0390919E03019690939E0380939B
:100480009D03089580919F039091A00301969093FE
:10049000A00380939F0308950895CF92DF92EF9277
:1004A000FF920F931F93CF93DF936C017A018B011F
:1004B000C0E0D0E0CE15DF0589F0D8016D918D0147
:1004C000D601ED91FC910190F081E02DC6011995C6
:1004D000892B11F47E0102C02196ECCFC701DF9178
:1004E000CF911F910F91FF90EF90DF90CF900895E3
:1004F000089580E090E00895FC01538D448D252FF0
:1005000030E0842F90E0821B930B541710F0CF96AD
:10051000089501970895FC01918D828D981761F0DF
:10052000828DDF01A80FB11D5D968C91928D9F5F2A
:100530009F73928F90E008958FEF9FEF0895FC01D5
:10054000918D828D981731F0828DE80FF11D858D88
:1005500090E008958FEF9FEF0895FC01918D228D1B
:10056000892F90E0805C9F4F821B91098F739927A0
:10057000089580E894E00E94AD0221E0892B09F4FF
:1005800020E0822F0895FC01848DDF01A80FB11DAA
:10059000A35ABF4F2C91848D90E001968F739927B9
:1005A000848FA689B7892C93A089B1898C918064A6
:1005B0008C93938D848D981306C00288F389E02D67
:1005C00080818F7D80830895EF92FF920F931F9318
:1005D000CF93DF93EC0181E0888F9B8D8C8D9813F6
:1005E00005C0E889F989808185FD24C0F62E0B8D30
:1005F00010E00F5F1F4F0F731127E02E8C8DE81254
:100600000CC00FB607FCFACFE889F989808185FF15
:10061000F5CFCE010E94C302F1CF8B8DFE01E80F12
:10062000F11DE35AFF4FF0820B8FEA89FB8980812D
:10063000806207C0EE89FF896083E889F98980813B
:100640008064808381E090E0DF91CF911F910F91D2
:10065000FF90EF900895CF93DF93EC01888D88236E
:10066000C9F0EA89FB89808185FD05C0A889B9891F
:100670008C9186FD0FC00FB607FCF5CF808185FFFA
:10068000F2CFA889B9898C9185FFEDCFCE010E9468
:10069000C302E7CFDF91CF91089580E090E0892BEE
:1006A00041F080E090E0892B21F00E940000811150
:1006B00021C080E090E0892B21F00E94B9028111D5
:1006C0001CC080E090E0892B41F080E090E0892B15
:1006D00021F00E940000811113C080E090E0892B7E
:1006E000A1F080E090E0892B81F00E940000811150
:1006F0000AC008950E940000DCCF0E940000E1CFF4
:100700000E940000EACF0C9400000895CF93DF937D
:10071000CDB7DEB72C970FB6F894DEBF0FBECDBFB6
:10072000FC0191812381892F807309F45DC0DB0175
:10073000A20FB11D27FDBA95803211F0803319F454
:1007400081E09C911CC0803131F4222321F09C91E6
:1007500081E089274AC0892F807C21F08481262F5F
:10076000FB013CC09F708BEF890F823020F481E049
:10077000FB01908104C0993029F481E09481992390
:10078000A1F132C0973051F70680F781E02DFA834E
:10079000E983FC83EB831E821D8278876F838281CD
:1007A000680F711D7A8769878381680F711D87FDC6
:1007B0007A957C876B8780818823A1F069857A850B
:1007C0008B819C810E948603882379F0CE0101965B
:1007D0000E94EC08F1CF9191911106C09E2F921BBF
:1007E0009817C8F381E001C080E02C960FB6F8940A
:1007F000DEBF0FBECDBFDF91CF9108950E94E813F9
:100800000F931F93CF93DF93EC018A01E881F98165
:10081000309709F12E813F81240F351F8C819D81F6
:100820008217930750F488859985009711F48EED0F
:1008300092E09987888780E015C0CE0119958111D3
:100840000AC0288539852115310511F42AEE32E0D8
:100850003987288707C08E819F81080F191F1F8342
:100860000E8381E0DF91CF911F910F9108952F9218
:100870003F924F925F926F927F928F929F92AF9230
:10088000BF92CF92DF92EF92FF920F931F93CF937D
:10089000DF93CDB7DEB72B970FB6F894DEBF0FBE50
:1008A000CDBF7C016B015A01DB0111968C91982F11
:1008B000907C903409F436C1903811F091114BC1FD
:1008C000E82FEF70F0E0EE0FFF1FE854FD4F40807F
:1008D0005180F6019381992331F0F501E90FF11D63
:1008E00097FDFA950EC08073803139F4B501C601C9
:1008F0000E94860391E0892701C081E08B87FE0179
:100900003B96D60111968C91282F207C203849F4F3
:10091000D501AD90BC9091E0A114B10409F490E030
:100920009B87982F90739031B9F018F4992339F080
:10093000ECC09032B1F0903309F4D6C0E6C0A114F7
:10094000B10409F0D6C0F70180859185009709F0C0
:1009500009C183EF92E006C18081882309F409C1AF
:10096000C8C08080912C8114910409F402C1203800
:1009700081F0D60115962C9130E02815390548F400
:10098000F70180859185009709F0ECC08AE093E03B
:10099000E9C08F70853008F07CC0F601208130E01E
:1009A00040E050E060E070E080E090E003E00E9412
:1009B000A012022F242F0260132F352FAB01BC0190
:1009C000C7010E945A09882309F4D1C0D6011196A3
:1009D0008C918F70833031F43401660C771C660C77
:1009E000771C29C0843039F4340183E0660C771C0D
:1009F0008A95E1F720C0FE0131961F018AE0DF01F0
:100A00001D928A95E9F78501612C712CA801B60128
:100A1000C101F2011995882309F4A9C0D6011496E1
:100A20008C91080F111DBFEF6B1A7B0A68147904B3
:100A300068F36F807884830120E030E040E050E08C
:100A400060E070E0C7010E945A09882309F48FC052
:100A5000F70180819181892B39F4A30160E070E076
:100A6000C7010E94000486C000E010E0A501B601A5
:100A7000C701F2011995882309F479C0D6011496AB
:100A80008C91A80EB11C0F5F1F4F0815190570F34C
:100A900070C000E010E0B601C7010E948B0B8823F4
:100AA00009F465C0F6018181982F907C9038D1F4CB
:100AB0008F7090E005970297A8F4D5014D915C9155
:100AC000B601C701F2011995882309F450C0D60177
:100AD00014968C91A80EB11C0F5F1F4F08151905B5
:100AE000D0F247C0A501ECCF9081D6018C9198132C
:100AF00040C0B601C7010E948B0B8823C1F1A5013C
:100B0000B601C701F201199535C0D70118968D912C
:100B10009C911997009711F482E293E0F701918775
:100B2000808725C04E5F5F4FD501ED91FC913097D6
:100B300001F1C701199581111CC0F701208531858C
:100B40002115310511F425E333E0D70119963C93C3
:100B50002E9318970FC0F70180859185009711F4A7
:100B600082E293E0D70119969C938E93189780E0C8
:100B700001C081E02B960FB6F894DEBF0FBECDBF4B
:100B8000DF91CF911F910F91FF90EF90DF90CF9069
:100B9000BF90AF909F908F907F906F905F904F909D
:100BA0003F902F900895CF93DF9390E0FC01E45A9B
:100BB000FD4F2491FC01EA5EFD4F8491882361F191
:100BC00090E0880F991FFC01EE51FE4FC591D49122
:100BD000FC01E450FE4FA591B491611109C09FB78B
:100BE000F8948881209582238883EC912E230BC072
:100BF000623061F49FB7F8943881822F8095832307
:100C00008883EC912E2B2C939FBF06C08FB7F8944E
:100C1000E8812E2B28838FBFDF91CF9108951F92FB
:100C20000F920FB60F9211242F933F938F939F93A0
:100C3000AF93BF9380917C0490917D04A0917E043A
:100C4000B0917F0430917B0423E0230F2D3720F4F3
:100C50000196A11DB11D05C026E8230F0296A11D16
:100C6000B11D20937B0480937C0490937D04A0931A
:100C70007E04B0937F048091770490917804A091D2
:100C80007904B0917A040196A11DB11D8093770477
:100C900090937804A0937904B0937A04BF91AF91B4
:100CA0009F918F913F912F910F900FBE0F901F90AA
:100CB00018951F920F920FB60F9211240BB60F9238
:100CC0002F933F934F935F936F937F938F939F9354
:100CD000AF93BF93EF93FF93E0910E02F0910F0259
:100CE0001995FF91EF91BF91AF919F918F917F9156
:100CF0006F915F914F913F912F910F900BBE0F908D
:100D00000FBE0F901F9018951F920F920FB60F9263
:100D100011240BB60F922F933F934F935F936F93D2
:100D20007F938F939F93AF93BF93EF93FF93E09144
:100D30000C02F0910D021995FF91EF91BF91AF91C7
:100D40009F918F917F916F915F914F913F912F91E3
:100D50000F900BBE0F900FBE0F901F9018951F9213
:100D60000F920FB60F9211240BB60F922F933F9351
:100D70004F935F936F937F938F939F93AF93BF93A3
:100D8000EF93FF93E0910202F09103021995FF9116
:100D9000EF91BF91AF919F918F917F916F915F91F3
:100DA0004F913F912F910F900BBE0F900FBE0F9060
:100DB0001F9018951F920F920FB60F9211240BB629
:100DC0000F922F933F934F935F936F937F938F93E4
:100DD0009F93AF93BF93EF93FF93E0910002F09145
:100DE00001021995FF91EF91BF91AF919F918F9162
:100DF0007F916F915F914F913F912F910F900BBE1B
:100E00000F900FBE0F901F9018951F920F920FB664
:100E10000F9211240BB60F922F933F934F935F9332
:100E20006F937F938F939F93AF93BF93EF93FF93B2
:100E3000E0910A02F0910B021995FF91EF91BF9199
:100E4000AF919F918F917F916F915F914F913F9162
:100E50002F910F900BBE0F900FBE0F901F90189503
:100E60001F920F920FB60F9211240BB60F922F9371
:100E70003F934F935F936F937F938F939F93AF9322
:100E8000BF93EF93FF93E0910802F0910902199547
:100E9000FF91EF91BF91AF919F918F917F916F9152
:100EA0005F914F913F912F910F900BBE0F900FBE0E
:100EB0000F901F9018951F920F920FB60F9211244A
:100EC0000BB60F922F933F934F935F936F937F9344
:100ED0008F939F93AF93BF93EF93FF93E09106029D
:100EE000F09107021995FF91EF91BF91AF919F91FA
:100EF0008F917F916F915F914F913F912F910F90C3
:100F00000BBE0F900FBE0F901F9018951F920F925F
:100F10000FB60F9211240BB60F922F933F934F935E
:100F20005F936F937F938F939F93AF93BF93EF9351
:100F3000FF93E0910402F09105021995FF91EF9162
:100F4000BF91AF919F918F917F916F915F914F91E1
:100F50003F912F910F900BBE0F900FBE0F901F90DF
:100F600018951F920F920FB60F9211240BB60F9285
:100F70002F933F934F935F936F937F938F939F93A1
:100F8000AF93BF93EF93FF9380E894E00E94C30276
:100F9000FF91EF91BF91AF919F918F917F916F9151
:100FA0005F914F913F912F910F900BBE0F900FBE0D
:100FB0000F901F9018951F920F920FB60F92112449
:100FC0000BB60F922F938F939F93EF93FF93E09124
:100FD0009004F09191048081E0919604F09197043F
:100FE00082FD12C09081809199048F5F8F73209150
:100FF0009A04821751F0E0919904F0E0E058FB4F19
:10100000958F8093990401C08081FF91EF919F910A
:101010008F912F910F900BBE0F900FBE0F901F90CE
:101020001895CF92DF92EF92FF920F931F93CF9379
:10103000DF93EC01862F680179016883498391E091
:10104000641390E09A8361E00E94D30560E0898197
:101050000E94D305CB82DC82ED82FE82DF91CF91AC
:101060001F910F91FF90EF90DF90CF900895CF9355
:10107000DF9300D01F92CDB7DEB7FA0150814181D6
:101080003281238159834A833B832C8344E050E09F
:10109000BE016F5F7F4F0E9400040F900F900F9072
:1010A0000F90DF91CF9108959F92AF92BF92CF9210
:1010B000DF92EF92FF920F931F93CF93DF93CDB701
:1010C000DEB728970FB6F894DEBF0FBECDBF5C0128
:1010D000DA01EC9111969C9011971296CC90129790
:1010E0001396DC9013971496EC9014971596FC9039
:1010F000159716961C9116971796FC91E9832E2F3B
:10110000392DA601B701812F9F2F08E00E94BB1245
:101110002A832E2F392DA601B701812F9F2F00E1A1
:101120000E94BB122B832E2F392DA601B701812FD0
:101130009F2F08E10E94BB122C832E2F392DA60170
:10114000B701812F9F2F00E20E94BB122D832E2F0B
:10115000392DA601B701812F9F2F08E20E94BB12F3
:101160002E832E2F392DA601B701812F9F2F00E34B
:101170000E94BB122F832E2F392DA601B701812F7C
:101180009F2F08E30E94BB12288748E050E0BE0171
:101190006F5F7F4FC5010E94000428960FB6F89438
:1011A000DEBF0FBECDBFDF91CF911F910F91FF909A
:1011B000EF90DF90CF90BF90AF909F900895682FF1
:1011C00080E894E00C94E40244E050E064E473E0CE
:1011D00080E894E00C944D02FC01A281B3818C91D3
:1011E000882309F463C0CD010896938382831896FF
:1011F0008C911897811118C086819781A081B18147
:10120000B383A2831582148212962C911297820FB7
:10121000911D9187808713962C91820F911D27FD38
:101220009A959387828742C014965C911497852F74
:1012300090E011962C911197322F3073303359F47E
:1012400019964C9119974073403329F41A964C9192
:101250001A974F3F69F1207C49F4303259F41596C2
:101260008C911597859FC00111240CC0203811F472
:1012700082E090E0311106C0248135812F5F3F4F1D
:10128000358324831A962C911A97820F911D2085FD
:101290003185820F931F918780871B962C91820F37
:1012A000911D27FD9A959387828702C080E008955B
:1012B00081E008953F924F925F926F927F928F925A
:1012C0009F92AF92BF92CF92DF92EF92FF920F93D5
:1012D0001F93CF93DF93CDB7DEB72A970FB6F8945D
:1012E000DEBF0FBECDBF6C01722E332EF42FE52F63
:1012F0002B019801472D532D6F2F7E2FC201AFE791
:101300000E94E01209F020F4098341E050E02EC071
:10131000CE0101965C01E12CF12C902F9068692E92
:10132000D5019D935D019801472D532D6F2F7E2F81
:10133000C20107E00E94BB128901742E352EF62FE0
:10134000E72F2C014701BFEF8B1A9B0AA0E00E94F8
:10135000E01211F07401E1CFE1E0F0E0EC0FFD1FCD
:10136000EE0DFF1D862D8F778083A401BE016F5F78
:101370007F4FC6010E9400042A960FB6F894DEBF84
:101380000FBECDBFDF91CF911F910F91FF90EF90D6
:10139000DF90CF90BF90AF909F908F907F906F9095
:1013A0005F904F903F900895AF92BF92CF92DF929F
:1013B000EF92FF920F931F93CF93DF93FC01EA010B
:1013C000DB0114968C91813059F4E880BE2DBB0F5F
:1013D000BB0BFB2EAB2EBB2ECB2EDB2E0B2F34C02C
:1013E000823059F4B981E880FB2EFF0CFF08AF2C46
:1013F000BF2CCF2CDF2C0F2D27C0843081F4088127
:1014000019812A813B81E02EB12FF22EA32E330FBA
:10141000000B102F9801B02EC02ED02E15C0883092
:1014200049F4E880B981FA80AB80BC80CD80DE8051
:101430000F810AC080859185009711F489E493E0BB
:101440009187808780E02AC02E2D3B2F4F2D5A2D6B
:101450006B2D7C2D8D2D902FA0E00E94E01264F466
:1014600001E00E94A012209530954095509560951E
:101470007095809590950BC02E2D3B2F4F2D5A2D9A
:101480006B2D7C2D8D2D902F01E00E94A0128901E3
:101490009A01AB01BC01CF010E945A09DF91CF91A3
:1014A0001F910F91FF90EF90DF90CF90BF90AF9082
:1014B00008958F929F92AF92BF92CF92DF92EF9258
:1014C000FF920F931F93FA01DB0114962C912130A8
:1014D00019F48080912C04C0223029F480809180FE
:1014E000A12CB12C06C0243041F480809180A280D0
:1014F000B380C12CD12C76011AC0283049F48080E9
:101500009180A280B380C480D580E680F7800FC030
:10151000FC01208531852115310511F429E433E0E2
:10152000DC0119963C932E93189780E006C0840145
:101530009501A601B7010E945A091F910F91FF90D2
:10154000EF90DF90CF90BF90AF909F908F900895D5
:101550000F931F93CF93FA01DB0114962C91213046
:1015600059F40081102F110F110B212F312FC12F92
:10157000B12FA12F712F38C0223059F41181008171
:10158000212F220F220B322FC22FB22FA22F722F08
:101590002BC0243079F440815181628173818A01AA
:1015A0009B01770F440B542FBA01C42FB42FA42FE3
:1015B000742F1AC0283049F40081118122813381AF
:1015C000C481B581A68177810FC0FC01208531855A
:1015D0002115310511F429E433E0DC0119963C931F
:1015E0002E93189780E005C04C2F5B2F6A2F0E9426
:1015F0005A09CF911F910F910895CF92DF92EF92E8
:10160000FF920F931F93CF93DF93EC016B017A014D
:101610008A0120E030E040E050E060E070E00E94AD
:101620005A09882369F0A701B601CE01DF91CF9155
:101630001F910F91FF90EF90DF90CF900C940004DA
:1016400080E0DF91CF911F910F91FF90EF90DF909D
:10165000CF900895FB01BA012481422F50E00C94F1
:10166000FD0ACF93DF93EC01FB01BA012481918144
:10167000907C903819F0422F50E002C04FEF5FEF9E
:101680006115710569F0DB01E0E0F0E0E417F507B2
:1016900049F08D91882311F03196F8CFAF0102C047
:1016A00040E050E0CE01DF91CF910C94FD0ACF9342
:1016B000DF93FA01309729F440E050E060E070E0F9
:1016C0001DC0DB0111962C91207C4081211112C09C
:1016D000A42FB0E01196EB012C8130E02A173B07D4
:1016E00048F4FC01208531852115310559F42BE59D
:1016F00033E008C050E0BF016F5F7F4FDF91CF91B3
:101700000C94FD0ADC0119963C932E93189780E007
:10171000DF91CF9108958F929F92AF92BF92CF9217
:10172000DF92EF92FF920F931F93CF93DF93EC0121
:10173000DB0111964C9111974F7050E04A305105E2
:1017400068F4FA018827EC57FF4F8F4F0C94391239
:1017500025E030E012C022E030E00FC08885998596
:10176000009711F482E293E09987888780E01AC09D
:1017700020E030E002C021E030E049012C9130E06F
:1017800040E050E060E070E080E090E003E00E9424
:10179000A01289019A0108291929AB01BC01CE01C7
:1017A0000E945A09DF91CF911F910F91FF90EF9006
:1017B000DF90CF90BF90AF909F908F900895EF9261
:1017C000FF920F931F93CF93DF93CDB7DEB72C9784
:1017D0000FB6F894DEBF0FBECDBFFB017A836983DD
:1017E0007C836B831E821D8258874F832281420F28
:1017F000511D5A8749872381420F511D27FD5A9554
:101800005C874B872081211102C081E044C07C01AC
:101810006B817C81FB0181818F7049855A8588307D
:1018200071F5FA01008111810115110569F1F801C5
:10183000A081B1811296ED91FC911397309721F020
:10184000B801C701199513C014966D917C91159735
:10185000FB018181807C803821F4A8014E5F5F4FBD
:1018600003C0F80142815381C7010E9437048111EE
:1018700002C080E010C0F80104811581D5CFC701F6
:101880000E9437048823A9F3CE0101960E94EC0838
:101890008111BECFBACF2C960FB6F894DEBF0FBE23
:1018A000CDBFDF91CF911F910F91FF90EF900895E1
:1018B0006F927F928F929F92AF92BF92CF92DF9260
:1018C000EF92FF920F931F93CF93DF93CDB7DEB7C5
:1018D0002A970FB6F894DEBF0FBECDBFFB0166801E
:1018E00077806114710451F4FC0120853185211544
:1018F000310511F42FE633E0FC0171C05A017C017F
:10190000CE0101964C018AE0F40111928A95E9F723
:10191000B301C4010E94DF0B811104C029853A85FF
:10192000F70154C0CF80D884860120E030E040E049
:1019300050E060E070E0C7010E945A09882309F472
:1019400051C0F701208131812115310539F4A601FB
:1019500060E070E0C7010E94000444C0F701868186
:1019600097818C0D9D1D448155814817590750F46E
:1019700080859185009711F48EED92E0F7019187B3
:1019800080872FC03A832983F701828193819C83CA
:101990008B83DE82CD8218861F821A861986A50166
:1019A000B301C4010E94DF0B4F815885F7012681E6
:1019B0003781240F351F378326832B813C81338366
:1019C000228329853A854C155D0519F431872087D6
:1019D00009C02115310511F428E833E0F7013187FA
:1019E000208780E02A960FB6F894DEBF0FBECDBFE9
:1019F000DF91CF911F910F91FF90EF90DF90CF90EB
:101A0000BF90AF909F908F907F906F900895CF92EE
:101A1000DF92EF92FF920F931F93E82FF92F05C0EB
:101A2000015011092109310961F190819623941720
:101A3000B9F305C0015011092109310911F1908153
:101A400096239413F7CFC12CD12CE12CF12C0AC092
:101A50008FEFC81AD80AE80AF80A0C151D052E05DA
:101A60003F0579F080818623841791F36C2D7D2DBD
:101A70008E2D9F2D1F910F91FF90EF90DF90CF90B3
:101A8000089560E070E080E090E01F910F91FF907A
:101A9000EF90DF90CF900895CF93DF93CDB7DEB76F
:101AA000C254D1090FB6F894DEBF0FBECDBF7894F3
:101AB00084B5826084BD84B5816084BD85B5826053
:101AC00085BD85B5816085BD80916E008160809304
:101AD0006E0010928100809181008260809381006D
:101AE000809181008160809381008091800081607D
:101AF000809380008091B10084608093B1008091D8
:101B0000B00081608093B0008091910082608093EA
:101B1000910080919100816080939100809190006C
:101B20008160809390008091A10082608093A100E9
:101B30008091A10081608093A1008091A0008160CC
:101B40008093A00080912101826080932101809187
:101B50002101816080932101809120018160809327
:101B6000200180917A00846080937A0080917A00CD
:101B7000826080937A0080917A00816080937A00FD
:101B800080917A00806880937A001092C10061E0B1
:101B900084E00E94D30560E084E00E94BB011092C3
:101BA0009E0310929D031092A00310929F0360E089
:101BB00083E00E94D30560E082E00E94D30588E3C1
:101BC00092E0909303028093020280916A008C60FD
:101BD00080936A00ED9A82E492E0909301028093F0
:101BE000000280916A00836080936A00EC9AE09121
:101BF0009004F091910482E08083E0918C04F09154
:101C00008D041082E0918E04F0918F0480E1808336
:101C100010929804E0919404F091950486E08083FA
:101C2000E0919204F0919304808180618083E0913F
:101C30009204F0919304808188608083E091920403
:101C4000F0919304808180688083E0919204F09108
:101C5000930480818F7D8083F3E02F2E312CA4E0CC
:101C60004A2E512CB3E06B2E712C8091160290916C
:101C700017028131974208F44CC0A4E620E030E01E
:101C800040E050E060E070E080E090E0B0E4E0919F
:101C90007B00E77FE0937B00B0937C00E0917A00CB
:101CA000E064E0937A00E0917A00E6FDFCCFE091F9
:101CB000780010917900F0E0F12B1F2F110F110B1C
:101CC0005F01C12ED12EE12EF12E012F0E94D712DD
:101CD000A150E9F6E4E6AE2EB12CC12CD12CE12CBA
:101CE000F12C00E010E00E9443120E94EC1223EC61
:101CF00035EF48EA5FE30E942A1360931B04709358
:101D00001C0480931D0490931E04109217021092DD
:101D1000160280911402909115028536910508F4FF
:101D20008DC0E0919C03EE2EF12C47E0E49FF00182
:101D30001124E35EFA4F8281882321F061E08081E3
:101D40000E94D30587E08E9D80018F9D100D112488
:101D5000035E1A4F60E0F80180810E94BB01C1015F
:101D60000197F1F761E0F80180810E94BB0183E2F5
:101D700090E00197F1F760E0F80180810E94BB01DB
:101D8000F8018281882321F060E080810E94D305E0
:101D900087E08E9DD0018F9DB00D1124A35EBA4FB8
:101DA00011968C91119790E0FC01E45AFD4F6491DB
:101DB000FC01EA5EFD4FE491F0E0EE0FFF1FE853F7
:101DC000FE4F8591949113960D911D912D913C910B
:101DD00016973F70462F0E94070D6115710581050A
:101DE000910539F0DC01CB010196A11DB11DBF7039
:101DF00003C080E090E0DC01F701EE0FFF1FEE0F63
:101E0000FF1FED50FC4F6CE170E00E942512CB01EA
:101E100096958795A0E0B0E080839183A283B383F9
:101E200080919C038F5F8A3018F480939C0302C0DA
:101E300010929C03109215021092140280911202CB
:101E4000909113028131974208F48AC0AE014F5F2E
:101E50005F4F80E1FA0111928A95E9F78CE090E0FA
:101E6000A0E0B0E089839A83AB83BC832FB7F8945A
:101E700080917C0490917D04A0917E04B0917F04B8
:101E80002FBF8D839E83AF83B8878EE090E0A0E064
:101E9000B0E089879A87AB87BC878091740490E013
:101EA000A0E0B0E08D879E87AF87B88B88EA91E08D
:101EB0009AAF89AF81EA93E09CAF8BAF82E590E067
:101EC0009EAF8DAF21961FAE1EAE219723961FAEFB
:101ED0001EAE239768E172E0CE01C9960E94DF0B27
:101EE0002196CEACDFAC21970E94E40880E894E014
:101EF0000E942B0364E080E894E00E94E40280E802
:101F000094E00E942B03C60199270E94DF088D2DC3
:101F100090E00E94DF0880E894E00E942B0301EA31
:101F200013E0812C912C5401E12CF12C8C149D0494
:101F3000AE04BF0468F4F80161918F0180E894E079
:101F40000E94E402FFEF8F1A9F0AAF0ABF0AEECF8A
:101F500080E894E00E942B03109213021092120268
:101F60008091100290911102893E934008F402C1C1
:101F7000AE014F5F5F4F88E3FA0111928A95E9F74E
:101F800080919D0390919E0310929E0310929D0359
:101F9000A0E0B0E089839A83AB83BC8380919F03E8
:101FA0009091A0031092A00310929F03A0E0B0E0D4
:101FB0008D839E83AF83B88780911B0490911C040E
:101FC000A0911D04B0911E0489879A87AB87BC87B6
:101FD0008091F3039091F403A091F503B091F6037F
:101FE000898B9A8BAB8BBC8B8091F7039091F80314
:101FF000A091F903B091FA038D8B9E8BAF8BB88FB4
:102000008091FB039091FC03A091FD03B091FE032E
:10201000898F9A8FAB8FBC8F8091FF0390910004C2
:10202000A0910104B09102048D8F9E8FAF8FB8A351
:102030008091030490910404A0910504B0910604DA
:1020400089A39AA3ABA3BCA3809107049091080431
:10205000A0910904B0910A048DA39EA3AFA3B8A7D1
:1020600080910B0490910C04A0910D04B0910E048A
:1020700089A79AA7ABA7BCA780910F0490911004E1
:10208000A0911104B09112048DA79EA7AFA7B8AB81
:102090008091130490911404A0911504B09116043A
:1020A00089AB9AABABABBCAB809117049091180491
:1020B000A0911904B0911A048DAB9EABAFABB8AF31
:1020C00088EA91E09AAF89AF81EA93E09CAF8BAF49
:1020D00082E590E09EAF8DAF21961FAE1EAE219798
:1020E00023961FAE1EAE239760E472E0CE01C99620
:1020F0000E94DF0B2196CEACDFAC21970E94E40852
:1021000080E894E00E942B0363E080E894E00E9462
:10211000E40280E894E00E942B03C60199270E9404
:10212000DF088D2D90E00E94DF0880E894E00E9497
:102130002B0301EA13E0812C912C5401E12CF12CAA
:102140008C149D04AE04BF0468F4F80161918F0102
:1021500080E894E00E94E402FFEF8F1A9F0AAF0A22
:10216000BF0AEECF80E894E00E942B031092110288
:1021700010921002AA24A394B12C07E010E085E08D
:10218000E82EF12C96E0C92ED12C80E894E00E9434
:10219000AD02892B09F49DC080E894E00E948B0277
:1021A000282F4091750450917604452B31F48134E9
:1021B00021F4B0927604A092750440917504509178
:1021C00076044130510569F42E3439F442E050E090
:1021D000509376044093750404C0109276041092D4
:1021E000750440917504509176044230510559F4BC
:1021F000233529F4709276046092750404C010921D
:102200007604109275044091750450917604433021
:10221000510559F4293429F45092760440927504FA
:1022200004C0109276041092750440917504509188
:1022300076044430510531F480937404F0927604AE
:10224000E092750440917504509176044530510533
:1022500051F4AC0155275093730440937204D0920B
:102260007604C0927504409175045091760446300E
:10227000510581F4982F882740917204509173047E
:1022800084239523909373048093720410937604AF
:10229000009375048091750490917604079709F076
:1022A00074CF80917104E82FF0E0E15EFB4F208352
:1022B0008F5F8093710490E02091720430917304D9
:1022C0002817390708F061CF109276041092750430
:1022D00054CF8091120290911302019690931302B1
:1022E00080931202809110029091110201969093B6
:1022F00011028093100280911402909115020196B0
:102300009093150280931402809116029091170207
:10231000019690931702809316020E944D03A5CC5C
:102320000F931F93E0E8F4E01382128288EE93E0AB
:10233000A0E0B0E084839583A683B78380ED92E02C
:10234000918380838DEC90E0958784878CEC90E07E
:102350009787868788EC90E0918B808B89EC90E062
:10236000938B828B8AEC90E0958B848B8EEC90E043
:10237000978B868B118E128E138E148E00E21EE4C4
:1023800020E030E04EE16FE18DE195E00E94110820
:1023900000E21EE420E030E040E261E284E295E009
:1023A0000E94110800E21EE420E030E042E263E215
:1023B0008BE295E00E94110800E21EE420E030E08C
:1023C00044E265E282E395E00E94110800E21EE427
:1023D00020E030E046E267E289E395E00E941108E0
:1023E00000E21EE420E030E048E269E280E495E0AB
:1023F0000E94110800E21EE420E030E04AE26BE2B5
:1024000087E495E00E94110800E21EE420E030E03D
:102410004CE26DE28EE495E00E94110800E21EE4B9
:1024200020E030E04EE26FE285E595E00E94110881
:1024300000E21EE420E030E040E361E38CE595E05B
:102440000E9411081F910F910895AA1BBB1B51E117
:1024500007C0AA1FBB1FA617B70710F0A61BB70B14
:10246000881F991F5A95A9F780959095BC01CD01B9
:102470000895EE0FFF1F881F8BBF0790F691E02D88
:102480001994689401C0E8948F929F92CF93DF9340
:102490000E944F12DF91CF919F908F9008958824D2
:1024A0009924F401E401B0E49F93AA279A158B04C0
:1024B0009C04ED05FE05CF05D007A10798F4AD2FCC
:1024C000DC2FCF2FFE2FE92D982C892E982F872FC8
:1024D000762F652F542F432F322F2227B85031F7F4
:1024E000BF9127C01B2EBF91BB27220F331F441F54
:1024F000551F661F771F881F991F881C991CEE1F88
:10250000FF1FCC1FDD1FAA1FBB1F8A149B04EC05F5
:10251000FD05CE05DF05A007B10748F08A189B0826
:10252000EC09FD09CE09DF09A00BB10B21601A945B
:10253000E1F62EF49401AF01BE01CD01000C089527
:102540000F93083090F0982F872F762F652F542FF8
:10255000432F322F22270850F4CF220F331F441F5E
:10256000551F661F771F881F991F0A95B2F70F9195
:10257000089597FB10F8169400080F93083098F010
:102580000850232F342F452F562F672F782F892F50
:10259000902DF4CF059497958795779567955795E6
:1025A0004795379527950A95AAF70F9108952A0D13
:1025B0003B1D4C1D5D1D6E1D7F1D801F911F0895CD
:1025C0000024A7FD00942A1730054005500560053A
:1025D0007005800590050895E894F92F96EBFF2388
:1025E00081F0121613061406440B9395F695879501
:1025F0007795679557954040FF23B9F71BC09927FA
:102600000895882351F49850D2F7872B762F652FA1
:10261000542F432F322F20E0B1F312161306140665
:10262000440B88233AF09A95440F551F661F771F75
:10263000881FCAF755234AF4440F551F11F460FF51
:1026400004C06F5F7F4F8F4F9F4F880F9695879580
:1026500097F908950E943D130C94AE130E94A013A5
:1026600038F00E94A71320F0952311F00C949713D3
:102670000C949D1311240C94E2130E94BF1370F369
:10268000959FC1F3950F50E0551F629FF001729F17
:10269000BB27F00DB11D639FAA27F00DB11DAA1F26
:1026A000649F6627B00DA11D661F829F2227B00D73
:1026B000A11D621F739FB00DA11D621F839FA00DFE
:1026C000611D221F749F3327A00D611D231F849F4E
:1026D000600D211D822F762F6A2F11249F575040A5
:1026E0009AF0F1F088234AF0EE0FFF1FBB1F661F20
:1026F000771F881F91505040A9F79E3F510580F0E9
:102700000C9497130C94E2135F3FE4F3983ED4F3D8
:10271000869577956795B795F795E7959F5FC1F78C
:10272000FE2B880F911D9695879597F9089597F937
:102730009F6780E870E060E008959FEF80EC089567
:1027400000240A9416161706180609060895002490
:102750000A9412161306140605060895092E03940A
:10276000000C11F4882352F0BB0F40F4BF2B11F47E
:1027700060FF04C06F5F7F4F8F4F9F4F089557FDDD
:102780009058440F551F59F05F3F71F04795880FDF
:1027900097FB991F61F09F3F79F087950895121676
:1027A00013061406551FF2CF4695F1DF08C0161622
:1027B00017061806991FF1CF8695710561050894D3
:1027C0000895E894BB2766277727CB0197F90895EA
:0E27D00081E090E0F8940C94ED13F894FFCFA4
:1027DE004C024C024C024C024C024C024C024C027B
:1027EE00FFFFFFFFFFFFFFFF0111000004000000CD
:1027FE00021100000400000003110000040000009C
:10280E0004110000040000000000000000000000A1
:10281E00011100000400000002110000040000007D
:10282E000313000004000000041300000400000065
:10283E000511000004000000061100000400000055
:10284E000711000004000000081100000400000041
:10285E0009110000040000000A110000040000002D
:10286E000B110000040000000C1100000400000019
:10287E000D110000040000000E1100000400000005
:10288E000000000000000000A80A590AD409370809
:10289E005408570B310B580C00002A0B0000000097
:1028AE00E4024D027C022B03AD028B029F02737475
:1028BE007265616D2066756C6C00696F2065727251
:1028CE006F72006D697373696E67207265717569D9
:1028DE00726564206669656C64006172726179204C
:1028EE006D61782073697A652065786365656465C6
:1028FE006400696E76616C6964206669656C64203B
:10290E00747970650063616C6C6261636B206572D3
:10291E00726F7200414E534900696E76616C696444
:10292E0020646174615F73697A650062797465739E
:10293E002073697A652065786365656465640069EE
:10294E006E76616C6964206669656C64206465737B
:10295E0063726970746F72007375626D7367207342
:0C296E00697A65206368616E676564002B
:00000001FF
