:1000000007C1000033C1000031C100002FC1000052
:100010002DC100002BC1000029C1000027C1000034
:1000200025C1000023C1000021C100001FC1000044
:100030001DC100001BC1000019C1000017C1000054
:1000400015C1000013C1000011C100000FC1000064
:100050000DC100000BC1000009C1000091C30000E8
:1000600005C1000057C300002CC30000FFC0000002
:10007000FDC00000FBC00000F9C00000F7C0000098
:10008000F5C00000F3C00000F1C00000EFC00000A8
:10009000EDC00000EBC00000E9C00000E7C00000B8
:1000A000E5C00000E3C00000E1C00000DFC00000C8
:1000B000DDC00000DBC00000D9C00000D7C00000D8
:1000C000D5C00000D3C00000D1C00000CFC00000E8
:1000D000CDC00000CBC00000C9C00000C7C00000F8
:1000E000C5C0000062016501540158015C019C011A
:1000F00069016D01730177017B018101850189012E
:100100009C018F019301970100002100240027002A
:100110002A002D0030003300010100000401070116
:100120000A0100002200250028002B002E003100CB
:10013000340002010000050108010B010505050559
:10014000070508080808020202020A0A080804044F
:10015000040401010101010101010303030303037D
:100160000303040707070C0C0C0C0C0C0C0C02020C
:10017000020206060606060606060B0B0B0B0B0B09
:100180000B0B010210202008081020401020408096
:10019000020102010804020101020408102040804B
:1001A00080402010080402018004020180402010D9
:1001B0000804020108040201010204081020408022
:1001C000010204081020408000000A0B02090C0DF7
:1001D0000E080703040100000000000000000000FA
:1001E000000000000000000000000000000000000F
:1001F00000000000121110000000000000000000CC
:100200000000000000000000000000000000BF042B
:1002100011241FBECFEFD1E2DEBFCDBF00E00CBF87
:1002200012E0A0E0B2E0E4EFF9E000E00BBF02C0B2
:1002300007900D92A231B107D9F722E0A2E1B2E016
:1002400001C01D92A83BB207E1F711E0C8E0D1E080
:1002500000E005C021970109802FFE01BDD3C73002
:10026000D10780E00807B1F7D5D2C2C3C9CECF937A
:10027000C82FECECF1E04491E6E8F1E02491E0E4F1
:10028000F1E09491992309F46AC0442309F454C01D
:1002900050E0FA013197E231F10508F04DC08827AE
:1002A000EE58FF4F8F4F98C3809180008F7707C023
:1002B000809180008F7D03C080918000877F809334
:1002C00080003AC084B58F7702C084B58F7D84BD2D
:1002D00033C08091B0008F7703C08091B0008F7DD4
:1002E0008093B00029C0809190008F7707C08091E3
:1002F00090008F7D03C080919000877F8093900055
:100300001BC08091A0008F7707C08091A0008F7DD7
:1003100003C08091A000877F8093A0000DC0309122
:1003200020013F7707C0309120013F7D03C030910D
:100330002001377F30932001E92FF0E0EE0FFF1FFF
:10034000EE5DFE4FA591B4918FB7F894EC91C11179
:1003500003C020952E2301C02E2B2C938FBFCF914D
:10036000089590E0FC01EE57FE4F2491FC01E45CFF
:10037000FE4F8491882399F090E0880F991FFC012B
:10038000E85FFE4FA591B491FC01EE5DFE4F8591B3
:1003900094918FB7F894EC91E22BEC938FBF089572
:1003A000CF92DF92EF92FF920F931F93CF93DF9341
:1003B0006C017A018B01C0E0D0E0CE15DF0589F039
:1003C000D8016D918D01D601ED91FC910190F081E4
:1003D000E02DC6011995892B11F47E0102C02196EA
:1003E000ECCFC701DF91CF911F910F91FF90EF905C
:1003F000DF90CF900895089580E090E00895FC018B
:10040000538D448D252F30E0842F90E0821B930B79
:10041000541710F0CF96089501970895FC01918D1F
:10042000828D981761F0828DDF01A80FB11D5D9656
:100430008C91928D9F5F9F73928F90E008958FEFC4
:100440009FEF0895FC01918D828D981731F0828D78
:10045000E80FF11D858D90E008958FEF9FEF0895CF
:10046000FC01918D228D892F90E0805C9F4F821B33
:1004700091098F73992708958BE192E0F1DF21E0D4
:10048000892B09F420E0822F0895FC01848DDF017F
:10049000A80FB11DA35ABF4F2C91848D90E00196F7
:1004A0008F739927848FA689B7892C93A089B189E6
:1004B0008C9180648C93938D848D981306C00288F0
:1004C000F389E02D80818F7D80830895EF92FF92E4
:1004D0000F931F93CF93DF93EC0181E0888F9B8D67
:1004E0008C8D981305C0E889F989808185FD23C02A
:1004F000F62E0B8D10E00F5F1F4F0F731127E02EAC
:100500008C8DE8120BC00FB607FCFACFE889F98989
:10051000808185FFF5CFCE01B8DFF2CF8B8DFE0154
:10052000E80FF11DE35AFF4FF0820B8FEA89FB8938
:100530008081806207C0EE89FF896083E889F9893C
:1005400080818064808381E090E0DF91CF911F9172
:100550000F91FF90EF900895CF93DF93EC01888D7A
:100560008823C1F0EA89FB89808185FD05C0A889BF
:10057000B9898C9186FD0EC00FB607FCF5CF80813E
:1005800085FFF2CFA889B9898C9185FFEDCFCE0187
:100590007CDFE8CFDF91CF91089580E090E0892B58
:1005A00019F06ADF811125C080E090E0892B41F0CD
:1005B00080E090E0892B21F00E94000081111CC096
:1005C00080E090E0892B41F080E090E0892B21F0E1
:1005D0000E940000811113C080E090E0892BA1F0FF
:1005E00080E090E0892B81F00E94000081110AC018
:1005F00008950E940000D8CF0E940000E1CF0E9421
:100600000000EACF0C94000008953FB7F894809161
:10061000170290911802A0911902B0911A0226B502
:10062000A89B05C02F3F19F00196A11DB11D3FBF2A
:10063000BA2FA92F982F8827820F911DA11DB11DB8
:10064000BC01CD0142E0660F771F881F991F4A95B4
:10065000D1F708958F929F92AF92BF92CF92DF927F
:10066000EF92FF92D2DF4B015C0188EEC82E83E04F
:10067000D82EE12CF12CC9DFDC01CB0188199909B6
:10068000AA09BB09883E9340A105B10558F021E0B5
:10069000C21AD108E108F10888EE880E83E0981E9E
:1006A000A11CB11CC114D104E104F10421F7FF9095
:1006B000EF90DF90CF90BF90AF909F908F90089574
:1006C00093D11F920F920FB60F9211240BB60F9277
:1006D0002F933F934F935F936F937F938F939F934A
:1006E000AF93BF93EF93FF938BE192E0CEDEFF9148
:1006F000EF91BF91AF919F918F917F916F915F919A
:100700004F913F912F910F900BBE0F900FBE0F9006
:100710001F9018951F920F920FB60F9211240BB6CF
:100720000F922F938F939F93EF93FF93E0912B0260
:10073000F0912C028081E0913102F091320282FD31
:1007400012C09081809134028F5F8F7320913502A7
:10075000821751F0E0913402F0E0E55EFD4F958F95
:100760008093340201C08081FF91EF919F918F911E
:100770002F910F900BBE0F900FBE0F901F901895EA
:100780001F920F920FB60F9211242F933F938F93C6
:100790009F93AF93BF938091130290911402A09105
:1007A0001502B09116023091120223E0230F2D376B
:1007B00020F40196A11DB11D05C026E8230F029665
:1007C000A11DB11D20931202809313029093140275
:1007D000A0931502B093160280911702909118020F
:1007E000A0911902B0911A020196A11DB11D80932A
:1007F000170290931802A0931902B0931A02BF91A6
:10080000AF919F918F913F912F910F900FBE0F90BD
:100810001F901895789484B5826084BD84B58160FA
:1008200084BD85B5826085BD85B5816085BD8091BB
:100830006E00816080936E00109281008091810033
:10084000826080938100809181008160809381002B
:10085000809180008160809380008091B1008460ED
:100860008093B1008091B00081608093B00080914E
:1008700091008260809391008091910081608093CB
:100880009100809190008160809390008091A10000
:1008900082608093A1008091A10081608093A1007B
:1008A0008091A00081608093A000809121018260EE
:1008B00080932101809121018160809321018091A9
:1008C000200181608093200180917A008460809370
:1008D0007A0080917A00826080937A0080917A0019
:1008E000816080937A0080917A00806880937A009A
:1008F0001092C100E0912B02F0912C0282E08083E3
:10090000E0912702F09128021082E0912902F091F3
:100910002A028FEC808310923302E0912F02F09133
:10092000300286E08083E0912D02F0912E028081DA
:1009300080618083E0912D02F0912E028081886099
:100940008083E0912D02F0912E0280818068808367
:10095000E0912D02F0912E0280818F7D808382E0D4
:1009600000DD83E0FEDC84E0FCDC80E080DC81E014
:100970007EDC70DE80E07BDC6DDE0FDEF8CFEBE14D
:10098000F2E01382128288EE93E0A0E0B0E084836C
:100990009583A683B78384E092E09183808385EC7E
:1009A00090E09587848784EC90E09787868780EC39
:1009B00090E0918B808B81EC90E0938B828B82EC2A
:1009C00090E0958B848B86EC90E0978B868B118ED4
:1009D000128E138E148E0895EE0FFF1F881F8BBF8B
:1009E0000790F691E02D199481E090E0F89400C012
:0409F000F894FFCFA9
:1009F400000000006602D001FF01AC0230020E02CA
:020A04002202CC
:00000001FF
