:100000000C9489010C9479090C944E090C942309E1
:100010000C94F8080C94CD080C94A2080C94770862
:100020000C944C080C94BA010C94BA010C94BA01CB
:100030000C94BA010C94BA010C94BA010C94BA0154
:100040000C94BA010C94BA010C94BA010C94BA0144
:100050000C94BA010C94BA010C94BA010C940208E5
:100060000C94BA010C94BA010C94BA010C94BA0124
:100070000C94BA010C94BA010C94BA010C94BA0114
:100080000C94BA010C94BA010C94BA010C94BA0104
:100090000C94CE090C94A4090C94BA010C94BA01E6
:1000A0000C94BA010C94BA010C94BA010C94BA01E4
:1000B0000C94BA010C94BA010C94BA010C94BA01D4
:1000C0000C94BA010C94BA010C94BA010C94BA01C4
:1000D0000C94BA010C94BA010C94BA010C94BA01B4
:1000E0000C94BA012E023102200224022802680276
:1000F000350239023F02430247024D0251025502C6
:1001000068025B025F0263025A175A175A174A17AE
:100110005D174D174D174D1750174D170C94900242
:100120000C94CF020C947E0A0C94F1020C94C91327
:100130000C9443020C94E3020C9428030C94E613F1
:100140000C945A170C9428020C9491020C94E61704
:100150000C944D170C9468020C94AE120C94C002CF
:100160000C94BC010C9420020C94F9160C945F02C0
:100170000C946F030C94D3160C94040A0C94550C35
:100180000C944F0B0C94E40B0C944F0E0C948602C1
:100190000C9447020C9431020C9450170C944A179B
:1001A0000C94FB150C9476150C942E020C942402DE
:1001B0000C945D170C94561D0C9451020C944D0236
:1001C0000C945B020C9463020C944A160C94BD0CC4
:1001D0000C947C020C9439020C9435020C943F026E
:1001E0000C94CC160C94800B0C94AA0D0C94550214
:1001F000000020002300260029002C002F003200E0
:100200000001000003010601090100002100240093
:1002100027002A002D0030003300010100000401F6
:1002200007010A0100002200250028002B002E00F3
:100230003100340002010000050108010B01050531
:100240000505070508080808020202020A0A08084C
:10025000040404040101010101010101030303037A
:1002600003030303040707070C0C0C0C0C0C0C0C09
:100270000202020206060606060606060B0B0B0B1A
:100280000B0B0B0B0102102020080810204010203F
:10029000408002010201080402010102040810204A
:1002A0004080804020100804020180040201804048
:1002B00020100804020108040201010204081020B1
:1002C0004080010204081020408000000A0B02094F
:1002D0000C0D0E08070304010000000000000000E0
:1002E000000000000000000000000000000000000E
:1002F00000000000000012111000000000000000CB
:1003000000000000000000000000000000000000ED
:10031000561D11241FBECFEFD1E2DEBFCDBF00E0DE
:100320000CBF14E0A0E0B2E0ECE9FFE300E00BBF9B
:1003300002C007900D92A43AB107D9F726E0A4EACB
:10034000B4E001C01D92AF36B207E1F711E0C9E891
:10035000D1E000E006C021970109802FFE010E9434
:10036000FF1DC838D10780E00807A9F70E94DA18F6
:100370000C94CC1F0C940000DC011296ED91FC91C2
:1003800013974E0F5F1F13965C934E931297611550
:10039000710539F0DB01E417F50719F081918D93B0
:1003A000FACF81E00895CF93DF93EC018C819D819A
:1003B000892B51F48E819F81009711F48AE093E09C
:1003C0009F838E8380E018C0E881F98141E050E08E
:1003D000CE01199581110AC02E813F812115310569
:1003E00011F428E133E03F832E8306C02C813D8148
:1003F000215031093D832C83DF91CF910895362F11
:1004000090E0FC01E653FD4F4491FC01EC57FD4F99
:100410002491FC01E25CFD4F9491992309F46BC097
:10042000442309F455C050E0FA013197E231F10557
:1004300008F04EC08827EE58FF4F8F4F0C94FF1DD9
:10044000809180008F7707C0809180008F7D03C0EE
:1004500080918000877F809380003AC084B58F7739
:1004600002C084B58F7D84BD33C08091B0008F778A
:1004700003C08091B0008F7D8093B00029C080912F
:1004800090008F7707C0809190008F7D03C080918E
:100490009000877F809390001BC08091A0008F7791
:1004A00007C08091A0008F7D03C08091A000877F4E
:1004B0008093A0000DC0809120018F7707C08091AC
:1004C00020018F7D03C080912001877F80932001D0
:1004D000E92FF0E0EE0FFF1FEC5DFD4FA591B49109
:1004E0008FB7F894EC91311103C020952E2301C0F1
:1004F0002E2B2C938FBF08958091A5049091A60474
:1005000001969093A6048093A50408958091A70472
:100510009091A80401969093A8048093A70408954D
:100520000895CF92DF92EF92FF920F931F93CF9394
:10053000DF936C017A018B01C0E0D0E0CE15DF05BE
:1005400089F0D8016D918D01D601ED91FC9101905A
:10055000F081E02DC6011995892B11F47E0102C0AE
:100560002196ECCFC701DF91CF911F910F91FF90A2
:10057000EF90DF90CF900895089580E090E0089587
:10058000FC01538D448D252F30E0842F90E0821B99
:10059000930B541710F0CF96089501970895FC011E
:1005A000918D828D981761F0828DDF01A80FB11DAA
:1005B0005D968C91928D9F5F9F73928F90E00895CE
:1005C0008FEF9FEF0895FC01918D828D981731F088
:1005D000828DE80FF11D858D90E008958FEF9FEFDC
:1005E0000895FC01918D228D892F90E0805C9F4FB2
:1005F000821B91098F73992708958CE895E00E94DA
:10060000F10221E0892B09F420E0822F0895FC01FA
:10061000848DDF01A80FB11DA35ABF4F2C91848D8B
:1006200090E001968F739927848FA689B7892C93C0
:10063000A089B1898C9180648C93938D848D98135B
:1006400006C00288F389E02D80818F7D8083089524
:10065000EF92FF920F931F93CF93DF93EC0181E012
:10066000888F9B8D8C8D981305C0E889F9898081CE
:1006700085FD24C0F62E0B8D10E00F5F1F4F0F730A
:100680001127E02E8C8DE8120CC00FB607FCFACFB4
:10069000E889F989808185FFF5CFCE010E940703A3
:1006A000F1CF8B8DFE01E80FF11DE35AFF4FF08271
:1006B0000B8FEA89FB898081806207C0EE89FF8900
:1006C0006083E889F98980818064808381E090E09B
:1006D000DF91CF911F910F91FF90EF900895CF93ED
:1006E000DF93EC01888D8823C9F0EA89FB8980813A
:1006F00085FD05C0A889B9898C9186FD0FC00FB60C
:1007000007FCF5CF808185FFF2CFA889B9898C914C
:1007100085FFEDCFCE010E940703E7CFDF91CF9198
:10072000089580E090E0892B41F080E090E0892BF3
:1007300021F00E940000811121C080E090E0892B0F
:1007400021F00E94FD0281111CC080E090E0892B05
:1007500041F080E090E0892B21F00E94000081119F
:1007600013C080E090E0892BA1F080E090E0892B1D
:1007700081F00E94000081110AC008950E940000CB
:10078000DCCF0E940000E1CF0E940000EACF0C9471
:10079000000008950E94B71F3F924F925F926F92A0
:1007A0007F928F929F92AF92BF92CF92DF92EF9201
:1007B000FF920F931F93CF93DF931F92CDB7DEB7B6
:1007C0004C017B01C12CD12C312C412C512C612CA2
:1007D000712CA12CB12C10E0BE016F5F7F4FC401C2
:1007E0000E94D301E82F882309F442C0F9812F2FFA
:1007F0002F7730E040E050E060E070E080E090E093
:100800000C2D0E94661E322A432A542A652A762A13
:10081000A72AB82A192BF7FF15C087E0C80ED11CEC
:10082000A6E4CA16D104C1F6F40186819781009727
:1008300011F481E293E0D40117969C938E9316975E
:10084000E0E016C0D7013C9211964C921197129697
:100850005C92129713966C92139714967C9214974D
:100860001596AC9215971696BC92169717961C93F0
:100870008E2F0F90DF91CF911F910F91FF90EF90EE
:10088000DF90CF90BF90AF909F908F907F906F90B0
:100890005F904F903F9008957F928F929F92AF927A
:1008A000BF92CF92DF92EF92FF920F931F93CF935D
:1008B000DF931F92CDB7DEB75C014B01BE016F5FC6
:1008C0007F4F0E94D301782E8823D1F1898187FD43
:1008D00005C0C82ED12CE12CF12C34C08F77C82E46
:1008E000D12CE12CF12C07E010E0BE016F5F7F4FAF
:1008F000C5010E94D301882319F18981482F4F77C0
:1009000050E060E070E0002E04C0440F551F661FE9
:10091000771F0A94D2F7C42AD52AE62AF72A87FF36
:1009200011C0095F1F4F03321105F9F6F5018681E9
:100930009781009711F481E293E0F5019783868314
:10094000712C05C0F401C082D182E282F382872D2E
:100950000F90DF91CF911F910F91FF90EF90DF905B
:10096000CF90BF90AF909F908F907F9008958F927F
:100970009F92AF92BF92EF92FF920F931F93CF93EC
:10098000DF9300D01F92CDB7DEB78C017B01BE0193
:100990006F5F7F4F0E944C04882359F198E0F80163
:1009A000D70101900D929A95E1F749815A816B81A7
:1009B0007C81F70184809580A12CB12C841695064A
:1009C000A606B70660F4F80186819781009711F4B6
:1009D00081E393E0F8019783868380E00AC0F70102
:1009E00055834483F80124813581241B350B3583DD
:1009F00024830F900F900F900F90DF91CF911F9154
:100A00000F91FF90EF90BF90AF909F908F900895BF
:100A1000EF92FF920F931F93CF93DF93CDB7DEB783
:100A200060970FB6F894DEBF0FBECDBF8C017A0180
:100A30006115710501F5DC018D919C918C5B9140F4
:100A4000D1F0F1E1EF16F10470F040E150E0BE01A9
:100A50006F5F7F4FC8010E9408058823E9F1E0E13C
:100A6000EE1AF108EECFA701BE016F5F7F4FC801FC
:100A70000E94080531C0D80114968D919C9115975C
:100A80008E159F0568F416968D919C911797009787
:100A900011F48AE093E0F8019783868380E01CC01C
:100AA000D801ED91FC91A701C8011995F8018111B8
:100AB0000DC0268137812115310511F428E133E07D
:100AC000D80117963C932E93169706C02481358142
:100AD0002E193F093583248360960FB6F894DEBF44
:100AE0000FBECDBFDF91CF911F910F91FF90EF907F
:100AF00008950F931F93CF93DF938C01EB014C81EB
:100B00005D814115510559F48A819B81F8019383D8
:100B100082838E819F819783868381E007C060E016
:100B200070E0CE010E9408058111EECFDF91CF91D8
:100B30001F910F9108950F931F93CF93DF9300D0D0
:100B40001F92CDB7DEB78C0161307105C1F060F046
:100B500062307105B9F06530710519F544E050E077
:100B60001AC0998197FF28C041E050E0BE016F5F35
:100B70007F4FC8010E9408058111F3CF1DC048E0D6
:100B800050E009C0BE016F5F7F4F0E944C04882374
:100B900099F049815A8160E070E0C8010E9408051F
:100BA0000BC0FC0186819781009711F489E493E0E2
:100BB000F8019783868380E00F900F900F900F903D
:100BC000DF91CF911F910F9108954F925F926F9295
:100BD0007F928F929F92AF92BF92CF92DF92EF92CD
:100BE000FF920F931F93CF93DF93CDB7DEB7639739
:100BF0000FB6F894DEBF0FBECDBF8C019B017A010A
:100C0000DA0112966D917C911397FB019181892FE6
:100C1000807C803409F4EFC0803809F4DFC0811192
:100C200091C1892F8F70E82FF0E0EE0FFF1FE05386
:100C3000FD4FC080D1809073903179F040F49111D4
:100C4000C3C0D70118964D915C911997BAC09032E4
:100C5000A1F0903309F489C0B7C0D7011A96ED917D
:100C6000FC911B9718964D915C911997E417F50725
:100C700009F4A7C081E08083A4C0D7011A96AD9083
:100C8000BC901B972230310509F050C0853008F028
:100C90004DC0BE016F5F7F4FC8010E94B70488231B
:100CA00009F45CC18D819E81892B19F1F501808148
:100CB000D70112966D917C911397FB01958189174D
:100CC000C0F4FB019481D70118964D915C9119975E
:100CD000989F400D511D1124CE010196F6011995E2
:100CE000882329F0D5018C918F5F8C93DBCF20E096
:100CF00001C021E08D819E81892B59F0D801169683
:100D00008D919C911797009709F071C08BE593E046
:100D10006EC0BE016F5F7F4FC8012B8B0E947905AB
:100D20002B89882309F41AC1822F19C1D70118967B
:100D30004D915C911997FB019481D5018C9125818E
:100D4000821748F0F80186819781009709F001C168
:100D50008BE593E0FEC021E0280FF5012083989FEA
:100D6000400D511D1124D70128C0D7011A96ED91CD
:100D7000FC911B97DB019C9190838730C9F4D701CC
:100D80001296ED91FC911397448150E060E070E081
:100D900018968D919C9119970E94C51FF701608547
:100DA00071850280F381E02D868197810E948A12ED
:100DB000D70118964D915C91199712966D917C917F
:100DC0001397C801F601BCC0D80116968D919C916D
:100DD0001797009761F48AE693E009C0D801169648
:100DE0008D919C911797009711F48DE793E0F8018E
:100DF00097838683B3C0DA011896AD90BC9019979B
:100E00002501B2E04B0E511CA114B10429F0F501EB
:100E100080819181892B29F4B901C8010E949B0529
:100E20009EC02230310581F5BE016F5F7F4FC80142
:100E30000E94B704882309F492C0D70112966D91DD
:100E40007C911397D501ED91FC91A201CE01019601
:100E5000199581110EC0F8012681378121153105C0
:100E600011F42FE833E0D80117963C932E93169790
:100E700076C08D819E81892B01F7BE016F5F7F4F08
:100E8000C8010E9479056BC02130310579F178F0F5
:100E900025303105B9F544E050E0BE016F5F7F4F6A
:100EA000C8010E94080594E0C92ED12C33C0FE0170
:100EB00031963F01C12CD12C4301FFEFCF1ADF0A3D
:100EC0008BE0C816D10409F449C041E050E0B301F9
:100ED000C8010E940805882309F440C09FEF691AE1
:100EE000790AD4018C9187FDE7CF16C048E050E025
:100EF000BE016F5F7F4FC8010E94080528E0C22E27
:100F0000D12C08C0F80186819781009711F589E4FA
:100F100093E01FC0882319F18CEB91E09C878B87AD
:100F2000CE0101969E878D87D88ACF861A8A198A24
:100F3000F70162817381D501ED91FC91A2010A96BE
:100F400019950DC0F80186819781009711F48AE602
:100F500093E0D80117969C938E93169780E0639642
:100F60000FB6F894DEBF0FBECDBFDF91CF911F91BA
:100F70000F91FF90EF90DF90CF90BF90AF909F9038
:100F80008F907F906F905F904F900895CF93DF93F5
:100F900090E0FC01EC57FD4F2491FC01E25CFD4F19
:100FA0008491882361F190E0880F991FFC01E65F2E
:100FB000FD4FC591D491FC01EC5DFD4FA591B4911D
:100FC000611109C09FB7F894888120958223888396
:100FD000EC912E230BC0623061F49FB7F8943881F6
:100FE000822F809583238883EC912E2B2C939FBF97
:100FF00006C08FB7F894E8812E2B28838FBFDF912E
:10100000CF9108951F920F920FB60F9211242F9334
:101010003F938F939F93AF93BF9380918805909157
:101020008905A0918A05B0918B053091870523E051
:10103000230F2D3720F40196A11DB11D05C026E810
:10104000230F0296A11DB11D20938705809388056B
:1010500090938905A0938A05B0938B0580918305B1
:1010600090918405A0918505B09186050196A11DFA
:10107000B11D8093830590938405A0938505B0935B
:101080008605BF91AF919F918F913F912F910F90C6
:101090000FBE0F901F9018951F920F920FB60F92D0
:1010A00011240BB60F922F933F934F935F936F933F
:1010B0007F938F939F93AF93BF93EF93FF93E091B1
:1010C0000E02F0910F021995FF91EF91BF91AF9130
:1010D0009F918F917F916F915F914F913F912F9150
:1010E0000F900BBE0F900FBE0F901F9018951F9280
:1010F0000F920FB60F9211240BB60F922F933F93BE
:101100004F935F936F937F938F939F93AF93BF930F
:10111000EF93FF93E0910C02F0910D021995FF916E
:10112000EF91BF91AF919F918F917F916F915F915F
:101130004F913F912F910F900BBE0F900FBE0F90CC
:101140001F9018951F920F920FB60F9211240BB695
:101150000F922F933F934F935F936F937F938F9350
:101160009F93AF93BF93EF93FF93E0910202F091AF
:1011700003021995FF91EF91BF91AF919F918F91CC
:101180007F916F915F914F913F912F910F900BBE87
:101190000F900FBE0F901F9018951F920F920FB6D1
:1011A0000F9211240BB60F922F933F934F935F939F
:1011B0006F937F938F939F93AF93BF93EF93FF931F
:1011C000E0910002F09101021995FF91EF91BF911A
:1011D000AF919F918F917F916F915F914F913F91CF
:1011E0002F910F900BBE0F900FBE0F901F90189570
:1011F0001F920F920FB60F9211240BB60F922F93DE
:101200003F934F935F936F937F938F939F93AF938E
:10121000BF93EF93FF93E0910A02F0910B021995AF
:10122000FF91EF91BF91AF919F918F917F916F91BE
:101230005F914F913F912F910F900BBE0F900FBE7A
:101240000F901F9018951F920F920FB60F921124B6
:101250000BB60F922F933F934F935F936F937F93B0
:101260008F939F93AF93BF93EF93FF93E091080207
:10127000F09109021995FF91EF91BF91AF919F9164
:101280008F917F916F915F914F913F912F910F902F
:101290000BBE0F900FBE0F901F9018951F920F92CC
:1012A0000FB60F9211240BB60F922F933F934F93CB
:1012B0005F936F937F938F939F93AF93BF93EF93BE
:1012C000FF93E0910602F09107021995FF91EF91CB
:1012D000BF91AF919F918F917F916F915F914F914E
:1012E0003F912F910F900BBE0F900FBE0F901F904C
:1012F00018951F920F920FB60F9211240BB60F92F2
:101300002F933F934F935F936F937F938F939F930D
:10131000AF93BF93EF93FF93E0910402F091050226
:101320001995FF91EF91BF91AF919F918F917F910F
:101330006F915F914F913F912F910F900BBE0F9046
:101340000FBE0F901F9018951F920F920FB60F921D
:1013500011240BB60F922F933F934F935F936F938C
:101360007F938F939F93AF93BF93EF93FF938CE8FB
:1013700095E00E940703FF91EF91BF91AF919F917C
:101380008F917F916F915F914F913F912F910F902E
:101390000BBE0F900FBE0F901F9018951F920F92CB
:1013A0000FB60F9211240BB60F922F938F939F932A
:1013B000EF93FF93E0919C05F0919D058081E09172
:1013C000A205F091A30582FD12C090818091A50530
:1013D0008F5F8F732091A605821751F0E091A505CC
:1013E000F0E0E457FA4F958F8093A50501C0808106
:1013F000FF91EF919F918F912F910F900BBE0F90C6
:101400000FBE0F901F901895FC01A281B3819D0122
:10141000240F351F33832283FB01460F571FE41728
:10142000F50719F081918D93FACF81E00895CF935C
:10143000DF93CDB7DEB72C970FB6F894DEBF0FBEA3
:10144000CDBFFC01AB0191812381892F807309F409
:101450004BC0DB01A20FB11D27FDBA95803211F000
:10146000803319F481E09C911CC0803131F4222337
:1014700021F09C9181E0892738C0892F807C21F060
:101480008481242FFA012AC09F708BEF890F82304C
:1014900020F481E0FA01908104C0993029F481E0C0
:1014A0009481992311F120C0973051F7668177819B
:1014B000CE0101960E947E148823A1F069857A8569
:1014C0008B819C810E94170A882379F0CE010196B6
:1014D0000E949E14F1CF9191911106C09E2F921BF4
:1014E0009817C8F381E001C080E02C960FB6F894FD
:1014F000DEBF0FBECDBFDF91CF9108954F925F92B7
:101500006F927F928F929F92AF92BF92CF92DF9213
:10151000EF92FF920F931F93CF93DF93CDB7DEB778
:1015200028970FB6F894DEBF0FBECDBF7A0148E012
:1015300050E0BE016F5F7F4F0E940805A82F8823EF
:1015400009F495C02A8130E040E050E060E070E0AE
:1015500080E090E008E00E94661E29013A014B01FC
:10156000F82FE92F2B8130E040E050E060E070E0A0
:1015700080E090E000E10E94661EA42CA22AB52C17
:10158000B32AC62CC42AD72CD52A182D162BB92D30
:10159000B72BF82BE92B8981A82A2C8130E040E079
:1015A00050E060E070E080E090E008E10E94661E9C
:1015B000A22AB32AC42AD52A162BB72BF82BE92B3B
:1015C0002D8130E040E050E060E070E080E090E0AD
:1015D00000E20E94661EA22AB32AC42AD52A162B2C
:1015E000B72BF82BE92B2E8130E040E050E060E093
:1015F00070E080E090E008E20E94661EA22AB32A12
:10160000C42AD52A162BB72BF82BE92B2F8130E0D3
:1016100040E050E060E070E080E090E000E30E9495
:10162000661EA22AB32AC42AD52A162BB72B9F2EB0
:10163000982A8E2E892A288530E040E050E060E02C
:1016400070E080E090E008E30E94661E2A29F7011E
:1016500020833B2931834C2942835D295383612BAD
:1016600064837B2B758389298683982997838A2FA6
:1016700028960FB6F894DEBF0FBECDBFDF91CF9195
:101680001F910F91FF90EF90DF90CF90BF90AF90A0
:101690009F908F907F906F905F904F900895EF9202
:1016A000FF920F931F93CF93DF9300D01F92CDB77C
:1016B000DEB77A0144E050E0BE016F5F7F4F0E94C9
:1016C0000805882391F09A810B8110E020E030E03A
:1016D000980111270027192B9981092B9C81392BFF
:1016E000F70100831183228333830F900F900F90B3
:1016F0000F90DF91CF911F910F91FF90EF90089580
:10170000CF92DF92EF92FF920F931F93CF93DF93CD
:1017100000D01F92CDB7DEB78C016B017A01BE01FC
:101720006F5F7F4F0E944C04882309F440C04981B9
:101730005A816B817C819A012F5F3F4FC901A0E0E4
:10174000B0E084179507A607B70740F4F801868133
:1017500097810097E9F48FE993E01AC0F60181813F
:10176000807C803841F4F80186819781009781F46C
:101770008DE793E00DC0F601848190E08217930716
:1017800060F4F80186819781009711F48EEA93E066
:10179000F8019783868380E00AC0B701C8010E94E0
:1017A000080529813A81F701E20FF31F10820F909B
:1017B0000F900F900F90DF91CF911F910F91FF909D
:1017C000EF90DF90CF9008958F929F92AF92BF924B
:1017D000EF92FF920F931F93CF93DF9300D000D02F
:1017E000CDB7DEB78C017B01BE016F5F7F4F4D83AC
:1017F0005E830E944C044D815E81882309F444C0BD
:1018000089819A81AB81BC818F3F9105A105B1058A
:1018100009F030F5BC016F5F7F4F4B01A12CB12C5B
:1018200088169906AA06BB0640F4F80186819781BE
:101830000097E9F48FE993E01AC0F7012181207C39
:10184000203841F4F80186819781009781F48DE773
:1018500093E00DC0F701248130E02617370760F4CC
:10186000F80186819781009711F48EEB93E0F801DF
:101870009783868380E008C0BA01FB018193BF0192
:10188000AC01C8010E94080526960FB6F894DEBF89
:101890000FBECDBFDF91CF911F910F91FF90EF90C1
:1018A000BF90AF909F908F9008958F929F92AF922C
:1018B000BF92CF92DF92FF920F931F93CF93DF934C
:1018C00000D01F92CDB7DEB78C015B016A01BE016B
:1018D0006F5F7F4F0E944C04F82E8823E9F1498105
:1018E0005A816B817C814F3F51056105710549F03B
:1018F00040F0F80186819781009711F58EEB93E017
:101900001FC0F5019481411551056105710541F430
:10191000492F50E060E070E0C6010E94C51F1CC066
:10192000892E912CA12CB12C481559056A057B05EF
:1019300061F0F80186819781009711F48DEC93E0B6
:10194000F80197838683F12C07C0492F50E0B60138
:10195000C8010E940805F82E8F2D0F900F900F9050
:101960000F90DF91CF911F910F91FF90DF90CF905B
:10197000BF90AF909F908F9008952F923F924F927B
:101980005F926F927F928F929F92AF92BF92CF920F
:10199000DF92EF92FF920F931F93CF93DF93CDB718
:1019A000DEB728970FB6F894DEBF0FBECDBF4C014F
:1019B0003B011A01BE016F5F7F4F0E94CC03E82FED
:1019C000882309F4ADC0F981CA80DB80EC80FD80FA
:1019D0000E811F81B8852F2F217030E040E050E04C
:1019E00060E070E080E090E0A0E00E94AF1EE1F0D7
:1019F0002F2F3C2D4D2D5E2D6F2D702F812F9B2F66
:101A000001E00E94811EA22EA094B32EB094C42E99
:101A1000C094D52ED094E62EE094F72EF094082FA3
:101A20000095192F10950FC02F2F3C2D4D2D5E2D99
:101A30006F2D702F812F9B2F01E00E94811E590175
:101A40006A017B018C01EE2309F46AC0D30114966C
:101A50008C918830B9F4D101AC921196BC92119757
:101A60001296CC9212971396DC9213971496EC92DE
:101A700014971596FC92159716960C931697179631
:101A80001C934EC08430A1F425013601D1014D9242
:101A90005D926D927C92139795014C2D5D2D770C84
:101AA0004408542C3201642D742D842D942D28C0AB
:101AB000823079F4D101AC921196BC922A2D3B2D43
:101AC0004B2D440F440B542F642F742F842F942FCD
:101AD00017C0813069F4D101AC922A2D3A2D330F11
:101AE000330B432F532F632F732F832F932F08C054
:101AF000F40186819781009769F48FEE93E00AC024
:101B00000E94A61E69F0F40186819781009711F466
:101B100081E094E0D40117969C938E931697E0E0B1
:101B20008E2F28960FB6F894DEBF0FBECDBFDF9183
:101B3000CF911F910F91FF90EF90DF90CF90BF90CA
:101B4000AF909F908F907F906F905F904F903F905D
:101B50002F9008958F929F92AF92BF92CF92DF9273
:101B6000EF92FF920F931F93CF93DF93CDB7DEB722
:101B700028970FB6F894DEBF0FBECDBF4C017B0196
:101B80008A01BE016F5F7F4F0E94CC03E82F88233C
:101B900009F471C0D70114968C918830F9F4298129
:101BA0003A814B815C816D817E818F819885D801DE
:101BB0002C9311963C93119712964C93129713966F
:101BC0005C93139714966C93149715967C931597C2
:101BD00016968C93169717969C9335C0843099F47B
:101BE00079816A819B818C81272F362F492F582F2D
:101BF000D8017C9311966C93119712969C9312972F
:101C000013968C9313C0823049F499818A81292FCD
:101C1000382FD8019C9311968C9306C0813059F4CB
:101C20002981D8012C9330E040E050E060E070E082
:101C300080E090E008C0F401868197810097A9F4C4
:101C40008FEE93E012C0A980BA80CB80DC80ED805B
:101C5000FE800F8118850E94A61E69F0F40186811E
:101C60009781009711F481E094E0D40117969C933A
:101C70008E931697E0E08E2F28960FB6F894DEBF6D
:101C80000FBECDBFDF91CF911F910F91FF90EF90CD
:101C9000DF90CF90BF90AF909F908F9008953F922C
:101CA0004F925F926F927F928F929F92AF92BF926C
:101CB000CF92DF92EF92FF920F931F93CF93DF9318
:101CC000CDB7DEB728970FB6F894DEBF0FBECDBFF5
:101CD0004C016B018A01BE016F5F7F4F0E94CC03F4
:101CE000382E882309F465C0D60114964C912981B9
:101CF0003A815B81DC80483071F4F80120833183C4
:101D00005283D3828D8184838E8185838F81868364
:101D1000888587834EC0C901A52FBD2D5C01C52EC6
:101D20002C013D01770C4408542C3201443031F42D
:101D3000F80180839183A283B3833BC0423069F46E
:101D4000D8012C9311963C93432F440F440B542FEE
:101D5000642F742F842F942F18C0413061F4F80140
:101D60002083322F330F330B432F532F632F732FC7
:101D7000832F932F0AC0D40116968D919C911797AB
:101D8000009799F48FEE93E010C0E42CF42C042D0E
:101D9000142D0E94A61E69F0D40116968D919C9177
:101DA0001797009711F481E094E0F40197838683FC
:101DB000312C832D28960FB6F894DEBF0FBECDBF11
:101DC000DF91CF911F910F91FF90EF90DF90CF9017
:101DD000BF90AF909F908F907F906F905F904F904B
:101DE0003F9008950F931F93CF93DF93EC018A01E7
:101DF000E881F981309709F12E813F81240F351F49
:101E00008C819D818217930750F48885998500976E
:101E100011F483E194E09987888780E015C0CE01B2
:101E2000199581110AC0288539852115310511F4CC
:101E300028E133E03987288707C08E819F81080F0A
:101E4000191F1F830E8381E0DF91CF911F910F91A6
:101E500008952F923F924F925F926F927F928F924E
:101E60009F92AF92BF92CF92DF92EF92FF920F9329
:101E70001F93CF93DF93CDB7DEB72B970FB6F894B0
:101E8000DEBF0FBECDBF7C016B015A01DB01119695
:101E90008C91982F907C903409F436C1903811F0D1
:101EA00091114BC1E82FEF70F0E0EE0FFF1FEC51E6
:101EB000FD4F40805180F6019381992331F0F50167
:101EC000E90FF11D97FDFA950EC08073803139F44A
:101ED000B501C6010E94170A91E0892701C081E07F
:101EE0008B87FE013B96D60111968C91282F207C82
:101EF000203849F4D501AD90BC9091E0A114B10413
:101F000009F490E09B87982F90739031B9F018F402
:101F1000992339F0ECC09032B1F0903309F4D6C077
:101F2000E6C0A114B10409F0D6C0F70180859185FF
:101F3000009709F009C18FE194E006C180818823F0
:101F400009F409C1C8C08080912C8114910409F45E
:101F500002C1203881F0D60115962C9130E0281569
:101F6000390548F4F70180859185009709F0ECC0A8
:101F700086E394E0E9C08F70853008F07CC0F601FC
:101F8000208130E040E050E060E070E080E090E0F0
:101F900003E00E94661E022F242F0260132F352FAC
:101FA000AB01BC01C7010E94FC14882309F4D1C015
:101FB000D60111968C918F70833031F43401660C08
:101FC000771C660C771C29C0843039F4340183E017
:101FD000660C771C8A95E1F720C0FE0131961F013F
:101FE0008AE0DF011D928A95E9F78501612C712C49
:101FF000A801B601C101F2011995882309F4A9C00D
:10200000D60114968C91080F111DBFEF6B1A7B0A35
:102010006814790468F36F807884830120E030E0ED
:1020200040E050E060E070E0C7010E94FC148823AB
:1020300009F48FC0F70180819181892B39F4A301C4
:1020400060E070E0C7010E94F20E86C000E010E080
:10205000A501B601C701F2011995882309F479C0D9
:10206000D60114968C91A80EB11C0F5F1F4F081556
:10207000190570F370C000E010E0B601C7010E94BE
:102080002D17882309F465C0F6018181982F907C73
:102090009038D1F48F7090E005970297A8F4D5019D
:1020A0004D915C91B601C701F2011995882309F49D
:1020B00050C0D60114968C91A80EB11C0F5F1F4F13
:1020C00008151905D0F247C0A501ECCF9081D601C3
:1020D0008C91981340C0B601C7010E942D17882328
:1020E000C1F1A501B601C701F201199535C0D701AB
:1020F00018968D919C911997009711F48AE693E0B8
:10210000F7019187808725C04E5F5F4FD501ED9124
:10211000FC91309701F1C701199581111CC0F7019D
:10212000208531852115310511F42EE434E0D701E5
:1021300019963C932E9318970FC0F70180859185CF
:10214000009711F48AE693E0D70119969C938E9339
:10215000189780E001C081E02B960FB6F894DEBF9F
:102160000FBECDBFDF91CF911F910F91FF90EF90E8
:10217000DF90CF90BF90AF909F908F907F906F90A7
:102180005F904F903F902F9008953F924F925F92B3
:102190006F927F928F929F92AF92BF92CF92DF9277
:1021A000EF92FF920F931F93CF93DF93CDB7DEB7DC
:1021B000A4970FB6F894DEBF0FBECDBF7C01198E79
:1021C0001A8E1B8E1C8E1D8E1E8E1F8E18A2CE0187
:1021D0000D960E947E14412C512C320133243394ED
:1021E000F70184819581892B09F486C0BE016F5F58
:1021F0007F4FC7010E944C04811107C0F701848101
:102200009581892B09F478C06EC089819A81AB8150
:10221000BC810097A105B10509F46EC04C015D01B8
:1022200063E0B694A794979487946A95D1F79C013C
:10223000277033273AA329A30F851889EF85F889DA
:10224000808190E0A0E0B0E088159905AA05BB0563
:1022500009F44BC0CE010D960E949E148F8598897B
:102260008017910759F784149504A604B70408F45D
:10227000C1C0EF85F88981818F70883009F0A5C0D1
:102280004080512C612C712C84149504A604B70451
:1022900008F4B0C0F7010480F581E02DFCA3EBA3A6
:1022A000ED89FE89C080D180F70184819581C114B8
:1022B000D10409F499C02BA13CA12817390709F0D2
:1022C00093C0F601A081B181ED91FC9111973097F7
:1022D00009F4D1C009A11AA1A5019401B601C70151
:1022E00019958111FBC080E0FDC08181982F9F70FE
:1022F000983009F4AFCF84C009891A89EF85F8892D
:10230000D180CE010D960E949E148111F5CF9D2D96
:10231000907339F4EF85F8899081992311F00F5F5C
:102320001F4F0134110528F40115110509F44BC0A4
:1023300002C000E410E0A80125E0569547952A95D3
:10234000E1F7FE01799620E030E02417350761F0CF
:1023500081909190A190B1908B208A2089208094C7
:1023600031F52F5F3F4FF1CF0F7111270115110587
:1023700051F1220F331F220F331FFE01E20FF31F13
:1023800020E230E0201B310B4FEF5FEFBA0104C0B9
:1023900076956795579547952A95D2F7018D128DB9
:1023A000238D348D041715072607370761F0F701D1
:1023B000268137812115310511F42FE134E0F70131
:1023C000378326838FC081E08DC0CE010D960E9499
:1023D0009E148F8598898017910709F04ACF44246D
:1023E0004A94542C320106C02BA13CA1281739076E
:1023F00009F0F6CE69A17AA1C7010E949B0538C0F9
:10240000807371F589899A898034910548F5FC01BA
:1024100035E0F695E7953A95E1F7EE0FFF1FEE0FE1
:10242000FF1F21E030E02C0F3D1FE20FF31F8F71E3
:10243000992741E050E060E070E004C0440F551F70
:10244000661F771F8A95D2F7808D918DA28DB38DEF
:10245000842B952BA62BB72B808F918FA28FB38FB8
:10246000AE01435F5F4F69A17AA1C7010E94E505F4
:102470008111B6CE38CF14960D911C911597F801A5
:10248000808190E0A0E0B0E088159905AA05BB0521
:1024900029F5F60142815381B801CE0101960E94CF
:1024A0007E14F601828193819A878987C6010696F8
:1024B0009C878B87F8018181807C803821F4C6015C
:1024C00002969A878987F6013682AE014F5F5F4F89
:1024D00069A17AA1C7010E94E50503CFF601C48076
:1024E000D580E2CEA4960FB6F894DEBF0FBECDBF66
:1024F000DF91CF911F910F91FF90EF90DF90CF90E0
:10250000BF90AF909F908F907F906F905F904F9013
:102510003F900895CF93DF93CDB7DEB72C970FB6DA
:10252000F894DEBF0FBECDBFAB01BC01CE0101965A
:102530000E947E14882349F0CE0101960E94081360
:10254000CE0101960E949E14F5CF2C960FB6F894FA
:10255000DEBF0FBECDBFDF91CF910895AF92BF9286
:10256000CF92DF92EF92FF920F931F93CF93DF935F
:10257000CDB7DEB728970FB6F894DEBF0FBECDBF3C
:102580007C015B016A01FB0106811781BE016F5F5F
:102590007F4F0E94B704882379F0F50186819781E7
:1025A000892B61F4F70186819781009711F48DE5FD
:1025B00094E0F7019783868380E019C0F50181815B
:1025C0008073803221F4B601C8010E948A12A601EC
:1025D000B801CE0101960E94C510182FBE016F5F91
:1025E0007F4FC7010E947905882331F3812F2896F8
:1025F0000FB6F894DEBF0FBECDBFDF91CF911F9114
:102600000F91FF90EF90DF90CF90BF90AF90089523
:10261000EF92FF920F931F93CF93DF93CDB7DEB767
:102620002C970FB6F894DEBF0FBECDBFFC016281C0
:102630007381DB0111968C91982F9F709830A9F5CA
:102640000084F185E02D008111810115110509F447
:102650006DC0F80116820190F081E02DE480F580D4
:10266000D80112964D915C911397B701CE01019656
:102670000E947E14F801828193819A878987C8011C
:1026800006969C878B87D70111968C91807C803829
:1026900021F4C80102969A878987CE0101960E948B
:1026A0000813F80104811581D0CF982F907C89F40C
:1026B000982F9073903151F48285938520853185D0
:1026C0008217930799F0DC011C9210C085FF0EC0A1
:1026D00008C0903859F5A085B1851D921C9285FFE0
:1026E00025C00284F385E02D108220C0DB01119605
:1026F0004C9111974F708085918516962D913C9144
:102700001797473029F4BC01C9010E948A120EC0F4
:10271000FB01448150E02115310521F0B9010E94EF
:10272000BC1F04C060E070E00E94C51F2C960FB66D
:10273000F894DEBF0FBECDBFDF91CF911F910F91F7
:10274000FF90EF900895CF92DF92EF92FF920F9358
:102750001F93CF93DF93EC01862F68017901688383
:10276000498391E0641390E09A8361E00E94C60778
:1027700060E089810E94C607CB82DC82ED82FE8206
:10278000DF91CF911F910F91FF90EF90DF90CF904D
:102790000895CF93DF9300D01F92CDB7DEB7FA0133
:1027A000508141813281238159834A833B832C8329
:1027B00044E050E0BE016F5F7F4F0E94F20E0F9029
:1027C0000F900F900F90DF91CF9108959F92AF924D
:1027D000BF92CF92DF92EF92FF920F931F93CF930E
:1027E000DF93CDB7DEB728970FB6F894DEBF0FBEE4
:1027F000CDBF5C01DA01EC9111969C901197129675
:10280000CC9012971396DC9013971496EC90149733
:102810001596FC90159716961C9116971796FC9195
:10282000E9832E2F392DA601B701812F9F2F08E0B4
:102830000E94811E2A832E2F392DA601B701812FD8
:102840009F2F00E10E94811E2B832E2F392DA60180
:10285000B701812F9F2F08E10E94811E2C832E2F0C
:10286000392DA601B701812F9F2F00E20E94811E02
:102870002D832E2F392DA601B701812F9F2F08E21E
:102880000E94811E2E832E2F392DA601B701812F84
:102890009F2F00E30E94811E2F832E2F392DA6012A
:1028A000B701812F9F2F08E30E94811E288748E0EF
:1028B00050E0BE016F5F7F4FC5010E94F20E289667
:1028C0000FB6F894DEBF0FBECDBFDF91CF911F9141
:1028D0000F91FF90EF90DF90CF90BF90AF909F90BF
:1028E0000895682F8CE895E00C94280344E050E0AC
:1028F00066E774E08CE895E00C949102FC01DB0142
:102900007183608373836283158214825783468345
:1029100012968C911297480F511D5187408713963C
:102920008C911397480F511D87FD5A955387428705
:1029300081E09C91911101C080E00895FC01A28189
:10294000B3818C91882309F453C0CD0108969383F9
:10295000828318968C911897811108C046815781FF
:1029600060817181CF010E947E1442C014965C91F7
:102970001497852F90E011962C911197322F307378
:10298000303359F419964C9119974073403329F418
:102990001A964C911A974F3F69F1207C49F43032D6
:1029A00059F415968C911597859FC00111240CC080
:1029B000203811F482E090E0311106C02481358185
:1029C0002F5F3F4F358324831A962C911A97820FDD
:1029D000911D20853185820F931F918780871B96DB
:1029E0002C91820F911D27FD9A959387828702C0B3
:1029F00080E0089581E008953F924F925F926F9238
:102A00007F928F929F92AF92BF92CF92DF92EF927E
:102A1000FF920F931F93CF93DF93CDB7DEB72A9723
:102A20000FB6F894DEBF0FBECDBF6C01722E332EF1
:102A3000F42FE52F2B019801472D532D6F2F7E2F5B
:102A4000C201AFE70E94AF1E09F020F4098341E004
:102A500050E02EC0CE0101965C01E12CF12C902FAC
:102A60009068692ED5019D935D019801472D532DE6
:102A70006F2F7E2FC20107E00E94811E8901742EF4
:102A8000352EF62FE72F2C014701BFEF8B1A9B0A3B
:102A9000A0E00E94AF1E11F07401E1CFE1E0F0E090
:102AA000EC0FFD1FEE0DFF1D862D8F778083A40197
:102AB000BE016F5F7F4FC6010E94F20E2A960FB6CD
:102AC000F894DEBF0FBECDBFDF91CF911F910F9164
:102AD000FF90EF90DF90CF90BF90AF909F908F903E
:102AE0007F906F905F904F903F900895AF92BF920C
:102AF000CF92DF92EF92FF920F931F93CF93DF93CA
:102B0000FC01EA01DB0114968C91813059F4E880D4
:102B1000BE2DBB0FBB0BFB2EAB2EBB2ECB2EDB2E4D
:102B20000B2F34C0823059F4B981E880FB2EFF0CA2
:102B3000FF08AF2CBF2CCF2CDF2C0F2D27C08430EB
:102B400081F4088119812A813B81E02EB12FF22E78
:102B5000A32E330F000B102F9801B02EC02ED02EB5
:102B600015C0883049F4E880B981FA80AB80BC8018
:102B7000CD80DE800F810AC080859185009711F499
:102B80008FEE93E09187808780E02AC02E2D3B2F27
:102B90004F2D5A2D6B2D7C2D8D2D902FA0E00E9456
:102BA000AF1E64F401E00E94661E209530954095AA
:102BB000509560957095809590950BC02E2D3B2F6C
:102BC0004F2D5A2D6B2D7C2D8D2D902F01E00E94C5
:102BD000661E89019A01AB01BC01CF010E94FC1461
:102BE000DF91CF911F910F91FF90EF90DF90CF90E9
:102BF000BF90AF9008958F929F92AF92BF92CF9265
:102C0000DF92EF92FF920F931F93FA01DB0114966C
:102C10002C91213019F48080912C04C0223029F4A9
:102C200080809180A12CB12C06C0243041F480809A
:102C30009180A280B380C12CD12C76011AC028309B
:102C400049F480809180A280B380C480D580E680E2
:102C5000F7800FC0FC01208531852115310511F465
:102C60002FEE33E0DC0119963C932E93189780E009
:102C700006C084019501A601B7010E94FC141F91B2
:102C80000F91FF90EF90DF90CF90BF90AF909F900B
:102C90008F9008950F931F93CF93FA01DB01149641
:102CA0002C91213059F40081102F110F110B212F7D
:102CB000312FC12FB12FA12F712F38C0223059F4DD
:102CC00011810081212F220F220B322FC22FB22F10
:102CD000A22F722F2BC0243079F440815181628160
:102CE00073818A019B01770F440B542FBA01C42FC3
:102CF000B42FA42F742F1AC0283049F400811181F9
:102D000022813381C481B581A68177810FC0FC0106
:102D1000208531852115310511F42FEE33E0DC01DA
:102D200019963C932E93189780E005C04C2F5B2F8B
:102D30006A2F0E94FC14CF911F910F910895CF929A
:102D4000DF92EF92FF920F931F93CF93DF93EC01EB
:102D50006B017A018A0120E030E040E050E060E061
:102D600070E00E94FC14882369F0A701B601CE012F
:102D7000DF91CF911F910F91FF90EF90DF90CF9057
:102D80000C94F20E80E0DF91CF911F910F91FF9094
:102D9000EF90DF90CF900895FB01BA012481422F7C
:102DA00050E00C949F16CF93DF93EC01FB01BA0126
:102DB00024819181907C903819F0422F50E002C01C
:102DC0004FEF5FEF6115710569F0DB01E0E0F0E0C6
:102DD000E417F50749F08D91882311F03196F8CF6B
:102DE000AF0102C040E050E0CE01DF91CF910C94E2
:102DF0009F16CF93DF93FA01309729F440E050E01B
:102E000060E070E01DC0DB0111962C91207C4081B8
:102E1000211112C0A42FB0E01196EB012C8130E0FB
:102E20002A173B0748F4FC0120853185211531051F
:102E300059F42BE734E008C050E0BF016F5F7F4FCB
:102E4000DF91CF910C949F16DC0119963C932E9341
:102E5000189780E0DF91CF9108958F929F92AF9263
:102E6000BF92CF92DF92EF92FF920F931F93CF9377
:102E7000DF93EC01DB0111964C9111974F7050E0FC
:102E80004A30510568F4FA018827EC57FF4F8F4FFD
:102E90000C94FF1D25E030E012C022E030E00FC0AE
:102EA00088859985009711F48AE693E09987888749
:102EB00080E01AC020E030E002C021E030E04901AB
:102EC0002C9130E040E050E060E070E080E090E085
:102ED00003E00E94661E89019A0108291929AB01A5
:102EE000BC01CE010E94FC14DF91CF911F910F9184
:102EF000FF90EF90DF90CF90BF90AF909F908F901A
:102F00000895EF92FF920F931F93CF93DF93CDB766
:102F1000DEB72C970FB6F894DEBF0FBECDBF7C0195
:102F2000CE0101960E947E14811102C081E041C051
:102F30006B817C81FB0181818F7049855A85883046
:102F400071F5FA01008111810115110569F1F8018E
:102F5000A081B1811296ED91FC911397309721F0E9
:102F6000B801C701199513C014966D917C911597FE
:102F7000FB018181807C803821F4A8014E5F5F4F86
:102F800003C0F80142815381C7010E94290F8111BA
:102F900002C080E00EC0F80104811581D5CFC701C1
:102FA0000E94290F8823A9F3CE0101960E949E1446
:102FB000BBCF2C960FB6F894DEBF0FBECDBFDF910E
:102FC000CF911F910F91FF90EF9008956F927F9294
:102FD0008F929F92AF92BF92CF92DF92EF92FF9229
:102FE0000F931F93CF93DF93CDB7DEB72A970FB61A
:102FF000F894DEBF0FBECDBFFB0166807780611401
:10300000710451F4FC01208531852115310511F43D
:103010002DE534E0FC0171C05A017C01CE0101961E
:103020004C018AE0F40111928A95E9F7B301C401D9
:103030000E948117811104C029853A85F70154C087
:10304000CF80D884860120E030E040E050E060E0AE
:1030500070E0C7010E94FC14882309F451C0F701F5
:10306000208131812115310539F4A60160E070E03D
:10307000C7010E94F20E44C0F701868197818C0D32
:103080009D1D448155814817590750F480859185CD
:10309000009711F483E194E0F701918780872FC0B6
:1030A0003A832983F701828193819C838B83DE821B
:1030B000CD8218861F821A861986A501B301C40124
:1030C0000E9481174F815885F70126813781240F8F
:1030D000351F378326832B813C81338322832985C7
:1030E0003A854C155D0519F43187208709C02115F3
:1030F000310511F42FE834E0F7013187208780E0B3
:103100002A960FB6F894DEBF0FBECDBFDF91CF91E8
:103110001F910F91FF90EF90DF90CF90BF90AF90F5
:103120009F908F907F906F900895CF92DF92EF9253
:10313000FF920F931F93E82FF92F05C0015011093B
:103140002109310961F1908196239417B9F305C0E3
:10315000015011092109310911F19081962394132D
:10316000F7CFC12CD12CE12CF12C0AC08FEFC81A5B
:10317000D80AE80AF80A0C151D052E053F0579F056
:1031800080818623841791F36C2D7D2D8E2D9F2DAC
:103190001F910F91FF90EF90DF90CF90089560E026
:1031A00070E080E090E01F910F91FF90EF90DF9032
:1031B000CF900895CF93DF93CDB7DEB7C254D10936
:1031C0000FB6F894DEBF0FBECDBF789484B5826091
:1031D00084BD84B5816084BD85B5826085BD85B5BB
:1031E000816085BD80916E00816080936E00109239
:1031F00081008091810082608093810080918100B4
:103200008160809381008091800081608093800044
:103210008091B10084608093B1008091B0008160A2
:103220008093B000809191008260809391008091A2
:1032300091008160809391008091900081608093E3
:1032400090008091A10082608093A1008091A100F4
:1032500081608093A1008091A00081608093A00094
:103260008091210182608093210180912101816000
:1032700080932101809120018160809320018091C1
:103280007A00846080937A0080917A0082608093D3
:103290007A0080917A00816080937A0080917A0030
:1032A000806880937A001092C10061E084E00E94FF
:1032B000C60760E084E00E94FF011092A60410920D
:1032C000A5041092A8041092A70460E083E00E9475
:1032D000C60760E082E00E94C6078CE792E0909308
:1032E00003028093020280916A008C6080936A00DE
:1032F000ED9A86E892E0909301028093000280911B
:103300006A00836080936A00EC9AE0919C05F091DA
:103310009D0582E08083E0919805F09199051082E7
:10332000E0919A05F0919B058FEC80831092A405A3
:10333000E091A005F091A10586E08083E0919E05D3
:10334000F0919F05808180618083E0919E05F091DE
:103350009F05808188608083E0919E05F0919F05A4
:10336000808180688083E0919E05F0919F05808137
:103370008F7D8083CE0101964C0180911602909141
:1033800017028131974208F44CC0A4E620E030E0F7
:1033900040E050E060E070E080E090E0B0E4E09178
:1033A0007B00E77FE0937B00B0937C00E0917A00A4
:1033B000E064E0937A00E0917A00E6FDFCCFE091D2
:1033C000780010917900F0E0F12B1F2F110F110BF5
:1033D0005F01C12ED12EE12EF12E012F0E949D1EE4
:1033E000A150E9F604E6A02EB12CC12CD12CE12C81
:1033F000F12C00E010E00E94091E0E94BB1E23EC8D
:1034000035EF48EA5FE30E94F91E6093230570934D
:10341000240580932505909326051092170210929B
:10342000160280911402909115028536910508F4D8
:1034300090C0E091A404EE2EF12CB7E0EB9FF001D8
:103440001124E75DF94F8281882321F061E08081BA
:103450000E94C60787E08E9D80018F9D100D11246C
:10346000075D194F60E0F80180810E94FF0183E051
:1034700090E00197F1F761E0D8018C910E94FF0183
:1034800083E290E00197F1F760E0F80180810E940B
:10349000FF01D80112968C911297882321F060E0E9
:1034A0008C910E94C60787E08E9DD0018F9DB00D44
:1034B0001124A75DB94F11968C91119790E0FC01F2
:1034C000EC57FD4F6491FC01E25CFD4FE491F0E0AC
:1034D000EE0FFF1FE051FE4F8591949113960D91D1
:1034E0001D912D913C9116973F70462F0E94951883
:1034F000611571058105910539F0DC01CB0101965B
:10350000A11DB11DBF7003C080E090E0DC01F70198
:10351000EE0FFF1FEE0FFF1FE550FB4F6CE170E059
:103520000E94EB1DCB0196958795A0E0B0E08083CB
:103530009183A283B3838091A4048F5F8A3018F4AF
:103540008093A40402C01092A40410921502109259
:10355000140280911202909113028131974208F473
:103560008BC080E1F40111928A95E9F78CE090E03C
:10357000A0E0B0E089839A83AB83BC832FB7F89433
:103580008091880590918905A0918A05B0918B055D
:103590002FBF8D839E83AF83B8878EE090E0A0E03D
:1035A000B0E089879A87AB87BC8780912705909187
:1035B0002805A0912905B0912A058D879E87AF87A0
:1035C000B88B84E09AE09AAF89AF89EA94E09CAF27
:1035D0008BAF82E590E09EAF8DAF21961FAE1EAE01
:1035E000219723961FAE1EAE2397A40168E172E0D7
:1035F000CE01C9960E9481172196CEACDFAC2197EF
:103600000E9476148CE895E00E946F0364E08CE8D9
:1036100095E00E9428038CE895E00E946F03C601A4
:1036200099270E9471148D2D90E00E9471148CE8EE
:1036300095E00E946F0309EA14E0412C512C3201FD
:10364000E12CF12C4C145D046E047F0468F4D80165
:103650006D918D018CE895E00E942803BFEF4B1A15
:103660005B0A6B0A7B0AEECF8CE895E00E946F0341
:103670001092130210921202809110029091110286
:10368000893E934008F400C188E3D4011D928A95D5
:10369000E9F78091A5049091A6041092A6041092D7
:1036A000A504A0E0B0E089839A83AB83BC838091BA
:1036B000A7049091A8041092A8041092A704A0E077
:1036C000B0E08D839E83AF83B8878091230590916E
:1036D0002405A0912505B091260589879A87AB8797
:1036E000BC878091FB049091FC04A091FD04B091F3
:1036F000FE04898B9A8BAB8BBC8B8091FF049091DD
:103700000005A0910105B09102058D8B9E8BAF8BBA
:10371000B88F8091030590910405A0910505B091A3
:103720000605898F9A8FAB8FBC8F8091070590918A
:103730000805A0910905B0910A058D8F9E8FAF8F66
:10374000B8A380910B0590910C05A0910D05B09147
:103750000E0589A39AA3ABA3BCA380910F059091FA
:103760001005A0911105B09112058DA39EA3AFA3E2
:10377000B8A78091130590911405A0911505B091FB
:10378000160589A79AA7ABA7BCA7809117059091AA
:103790001805A0911905B0911A058DA79EA7AFA78E
:1037A000B8AB80911B0590911C05A0911D05B091AF
:1037B0001E0589AB9AABABABBCAB80911F0590915A
:1037C0002005A0912105B09122058DAB9EABAFAB3A
:1037D000B8AF84E09AE09AAF89AF89EA94E09CAFF1
:1037E0008BAF82E590E09EAF8DAF21961FAE1EAEEF
:1037F000219723961FAE1EAE2397A40160E472E0CA
:10380000CE01C9960E9481172196CEACDFAC2197DC
:103810000E9476148CE895E00E946F0363E08CE8C8
:1038200095E00E9428038CE895E00E946F03C60192
:1038300099270E9471148D2D90E00E9471148CE8DC
:1038400095E00E946F0309EA14E0412C512C3201EB
:10385000E12CF12C4C145D046E047F0468F4F80133
:1038600061918F018CE895E00E942803FFEF4F1AC9
:103870005F0A6F0A7F0AEECF8CE895E00E946F0323
:10388000109211021092100235E0232E312C44E0E8
:10389000A42EB12C03E010E052E0E52EF12CCC2454
:1038A000C394D12C8CE895E00E94F102892B09F495
:1038B000DFC08CE895E00E94CF02482F209181055F
:1038C000309182052115310539F4813499F4D09273
:1038D0008205C0928105E6CF2130310559F48E343E
:1038E00029F4F0928205E0928105DCCF10928205E6
:1038F0001092810520918105309182052230310599
:1039000059F4433529F41093820500938105CACFF9
:1039100010928205109281052091810530918205D7
:103920002330310559F4493429F4B0928205A0922C
:103930008105B8CF109282051092810520918105F2
:10394000309182052430310539F48093800530921E
:10395000820520928105A6CF2530310561F4992793
:1039600090937F0580937E0586E090E0909382059A
:103970008093810597CF26303105A9F4982F8827A9
:1039800020917E0530917F05822B932B90937F05AC
:1039900080937E0510927D05A7E0B0E0B09382058C
:1039A000A09381057FCF2730310509F07BCFE091CF
:1039B0007D0591E09E0F90937D05F0E0E55DFA4F67
:1039C000808320917E0530917F05892F90E0281714
:1039D000390708F067CF80918005823009F043C035
:1039E000C901A0E0B0E08093270590932805A0933B
:1039F0002905B0932A0519AE1AAE1BAE1CAE21964E
:103A00001CAE1DAE1EAE1FAE2197ECEBF1E0FA83AB
:103A1000E9838BE295E09C838B833E832D8318861C
:103A20001F82BE01675C7F4F88EB92E00E948A1282
:103A3000AE01475C5F4F68EB72E0C4010E94C510A5
:103A4000882329F089AD9AADABADBCAD04C085E447
:103A500090E0A0E0B0E08093270590932805A09324
:103A60002905B0932A0510928205109281051ACF7C
:103A70008091120290911302019690931302809309
:103A800012028091140290911502019690931502F2
:103A900080931402809116029091170201969093E0
:103AA0001702809316020E94910367CC0F931F9315
:103AB000ECE8F5E01382128288EE93E0A0E0B0E03B
:103AC00084839583A683B7838CEF92E09183808370
:103AD0008DEC90E0958784878CEC90E097878687C3
:103AE00088EC90E0918B808B89EC90E0938B828BBB
:103AF0008AEC90E0958B848B8EEC90E0978B868B94
:103B0000118E128E138E148E00E21EE420E030E03F
:103B10004EE16FE189E296E00E94A31300E21EE409
:103B200020E030E040E261E280E396E00E94A313EF
:103B300000E21EE420E030E042E263E287E396E048
:103B40000E94A31300E21EE420E030E044E265E2BC
:103B50008EE396E00E94A31300E21EE420E030E032
:103B600046E267E285E496E00E94A31300E21EE4C9
:103B700020E030E048E269E28CE496E00E94A31382
:103B800000E21EE420E030E04AE26BE283E596E0EA
:103B90000E94A31300E21EE420E030E04CE26DE25C
:103BA0008AE596E00E94A31300E21EE420E030E0E4
:103BB0004EE26FE281E696E00E94A31300E21EE46B
:103BC00020E030E040E361E388E696E00E94A31342
:103BD0001F910F910895AA1BBB1B51E107C0AA1F9B
:103BE000BB1FA617B70710F0A61BB70B881F991F9E
:103BF0005A95A9F780959095BC01CD010895EE0FD7
:103C0000FF1F881F8BBF0790F691E02D19946894D1
:103C100001C0E8948F929F92CF93DF930E94151E6C
:103C2000DF91CF919F908F90089588249924F4017B
:103C3000E401B0E49F93AA279A158B049C04ED0538
:103C4000FE05CF05D007A10798F4AD2FDC2FCF2FAD
:103C5000FE2FE92D982C892E982F872F762F652FF0
:103C6000542F432F322F2227B85031F7BF9127C04E
:103C70001B2EBF91BB27220F331F441F551F661FEA
:103C8000771F881F991F881C991CEE1FFF1FCC1FD0
:103C9000DD1FAA1FBB1F8A149B04EC05FD05CE0582
:103CA000DF05A007B10748F08A189B08EC09FD0959
:103CB000CE09DF09A00BB10B21601A94E1F62EF4B6
:103CC0009401AF01BE01CD01000C08950F9308309F
:103CD00090F0982F872F762F652F542F432F322F58
:103CE00022270850F4CF220F331F441F551F661F91
:103CF000771F881F991F0A95B2F70F91089597FBB8
:103D000010F8169400080F93083098F00850232FED
:103D1000342F452F562F672F782F892F902DF4CFD2
:103D20000594979587957795679557954795379516
:103D300027950A95AAF70F9108952A0D3B1D4C1D52
:103D40005D1D6E1D7F1D801F911F08952A153B0567
:103D50004C055D056E057F058007910708950024D9
:103D6000A7FD00942A173005400550056005700531
:103D7000800590050895E894F92F96EBFF2381F0D4
:103D8000121613061406440B9395F69587957795AE
:103D9000679557954040FF23B9F71BC099270895B1
:103DA000882351F49850D2F7872B762F652F542F04
:103DB000432F322F20E0B1F3121613061406440BE2
:103DC00088233AF09A95440F551F661F771F881F66
:103DD000CAF755234AF4440F551F11F460FF04C07D
:103DE0006F5F7F4F8F4F9F4F880F9695879597F9FD
:103DF00008950E940C1F0C947D1F0E946F1F38F0C5
:103E00000E94761F20F0952311F00C94661F0C94ED
:103E10006C1F11240C94B11F0E948E1F70F3959F8C
:103E2000C1F3950F50E0551F629FF001729FBB27B1
:103E3000F00DB11D639FAA27F00DB11DAA1F649F4D
:103E40006627B00DA11D661F829F2227B00DA11D00
:103E5000621F739FB00DA11D621F839FA00D611D86
:103E6000221F749F3327A00D611D231F849F600DA7
:103E7000211D822F762F6A2F11249F5750409AF0D0
:103E8000F1F088234AF0EE0FFF1FBB1F661F771F5C
:103E9000881F91505040A9F79E3F510580F00C9427
:103EA000661F0C94B11F5F3FE4F3983ED4F38695F0
:103EB00077956795B795F795E7959F5FC1F7FE2BC7
:103EC000880F911D9695879597F9089597F99F67A3
:103ED00080E870E060E008959FEF80EC0895002492
:103EE0000A941616170618060906089500240A945F
:103EF00012161306140605060895092E0394000CE5
:103F000011F4882352F0BB0F40F4BF2B11F460FF73
:103F100004C06F5F7F4F8F4F9F4F089557FD90589C
:103F2000440F551F59F05F3F71F04795880F97FB7D
:103F3000991F61F09F3F79F0879508951216130637
:103F40001406551FF2CF4695F1DF08C01616170666
:103F50001806991FF1CF869571056105089408959B
:103F6000E894BB2766277727CB0197F9089581E06E
:103F700090E0F8940C94CC1FFB01DC0102C001908E
:103F80000D9241505040D8F70895DC0101C06D9367
:0C3F900041505040E0F70895F894FFCF36
:103F9C009002900290029002900290029002900285
:103FAC00FFFFFFFFFFFFFFFF0111000004000000F7
:103FBC0002110000040000000311000004000000C6
:103FCC0004110000040000000000000000000000CC
:103FDC0001110000040000000211000004000000A8
:103FEC000313000004000000041300000400000090
:103FFC000511000004000000061100000400000080
:10400C00071100000400000008110000040000006B
:10401C0009110000040000000A1100000400000057
:10402C000B110000040000000C1100000400000043
:10403C000D110000040000000E110000040000002F
:10404C00000000000000000001110000040000004E
:10405C00021100000400000000000000000000003D
:10406C004F0EAA0DBD0C4F0B7E0AE40B800BAE124B
:10407C000000550C4A16FB157615C913E613F916F4
:10408C00D316E6170000CC1600000000280391029E
:10409C00C0026F03F102CF02E302656E642D6F66FE
:1040AC002D73747265616D00696F206572726F7229
:1040BC0000766172696E74206F766572666C6F77CC
:1040CC0000706172656E742073747265616D20741A
:1040DC006F6F2073686F727400696E76616C6964BF
:1040EC0020776972655F74797065006172726179AD
:1040FC00206F766572666C6F7700696E76616C699D
:10410C0064206669656C642074797065006E6F203C
:10411C006D616C6C6F6320737570706F727400637B
:10412C00616C6C6261636B206661696C65640073C1
:10413C00697A6520746F6F206C61726765007374A7
:10414C0072696E67206F766572666C6F7700627944
:10415C00746573206F766572666C6F7700696E6339
:10416C006F7272656374206669786564206C656E25
:10417C006774682062797465732073697A65006965
:10418C006E76616C696420646174615F73697A65D1
:10419C0000696E746567657220746F6F206C617254
:1041AC0067650073747265616D2066756C6C006D6B
:1041BC00697373696E6720726571756972656420C5
:1041CC006669656C64006172726179206D6178203A
:1041DC0073697A65206578636565646564006361FD
:1041EC006C6C6261636B206572726F7200696E76C3
:1041FC00616C6964206669656C64206465736372C4
:10420C006970746F7200414E534900627974657322
:10421C002073697A652065786365656465640073ED
:10422C0075626D73672073697A65206368616E6768
:04423C0065640000B5
:00000001FF
